{
  "contractName": "adreamwithinadream",
  "abi": [
    {
      "inputs": [],
      "stateMutability": "nonpayable",
      "type": "constructor"
    },
    {
      "anonymous": false,
      "inputs": [
        {
          "indexed": true,
          "internalType": "address",
          "name": "account",
          "type": "address"
        },
        {
          "indexed": true,
          "internalType": "address",
          "name": "sender",
          "type": "address"
        }
      ],
      "name": "AdminApproved",
      "type": "event"
    },
    {
      "anonymous": false,
      "inputs": [
        {
          "indexed": true,
          "internalType": "address",
          "name": "account",
          "type": "address"
        },
        {
          "indexed": true,
          "internalType": "address",
          "name": "sender",
          "type": "address"
        }
      ],
      "name": "AdminRevoked",
      "type": "event"
    },
    {
      "anonymous": false,
      "inputs": [
        {
          "indexed": true,
          "internalType": "address",
          "name": "owner",
          "type": "address"
        },
        {
          "indexed": true,
          "internalType": "address",
          "name": "approved",
          "type": "address"
        },
        {
          "indexed": true,
          "internalType": "uint256",
          "name": "tokenId",
          "type": "uint256"
        }
      ],
      "name": "Approval",
      "type": "event"
    },
    {
      "anonymous": false,
      "inputs": [
        {
          "indexed": true,
          "internalType": "address",
          "name": "owner",
          "type": "address"
        },
        {
          "indexed": true,
          "internalType": "address",
          "name": "operator",
          "type": "address"
        },
        {
          "indexed": false,
          "internalType": "bool",
          "name": "approved",
          "type": "bool"
        }
      ],
      "name": "ApprovalForAll",
      "type": "event"
    },
    {
      "anonymous": false,
      "inputs": [
        {
          "indexed": true,
          "internalType": "address",
          "name": "previousOwner",
          "type": "address"
        },
        {
          "indexed": true,
          "internalType": "address",
          "name": "newOwner",
          "type": "address"
        }
      ],
      "name": "OwnershipTransferred",
      "type": "event"
    },
    {
      "anonymous": false,
      "inputs": [
        {
          "indexed": true,
          "internalType": "address",
          "name": "from",
          "type": "address"
        },
        {
          "indexed": true,
          "internalType": "address",
          "name": "to",
          "type": "address"
        },
        {
          "indexed": true,
          "internalType": "uint256",
          "name": "tokenId",
          "type": "uint256"
        }
      ],
      "name": "Transfer",
      "type": "event"
    },
    {
      "inputs": [
        {
          "internalType": "address",
          "name": "",
          "type": "address"
        }
      ],
      "name": "_tokensClaimed",
      "outputs": [
        {
          "internalType": "uint256",
          "name": "",
          "type": "uint256"
        }
      ],
      "stateMutability": "view",
      "type": "function",
      "constant": true
    },
    {
      "inputs": [
        {
          "internalType": "address",
          "name": "",
          "type": "address"
        }
      ],
      "name": "_tokensWhitelisted",
      "outputs": [
        {
          "internalType": "uint256",
          "name": "",
          "type": "uint256"
        }
      ],
      "stateMutability": "view",
      "type": "function",
      "constant": true
    },
    {
      "inputs": [
        {
          "internalType": "address",
          "name": "to",
          "type": "address"
        },
        {
          "internalType": "uint256",
          "name": "tokenId",
          "type": "uint256"
        }
      ],
      "name": "approve",
      "outputs": [],
      "stateMutability": "nonpayable",
      "type": "function"
    },
    {
      "inputs": [
        {
          "internalType": "address",
          "name": "admin",
          "type": "address"
        }
      ],
      "name": "approveAdmin",
      "outputs": [],
      "stateMutability": "nonpayable",
      "type": "function"
    },
    {
      "inputs": [],
      "name": "ashContract",
      "outputs": [
        {
          "internalType": "address",
          "name": "",
          "type": "address"
        }
      ],
      "stateMutability": "view",
      "type": "function",
      "constant": true
    },
    {
      "inputs": [],
      "name": "ashPrice",
      "outputs": [
        {
          "internalType": "uint256",
          "name": "",
          "type": "uint256"
        }
      ],
      "stateMutability": "view",
      "type": "function",
      "constant": true
    },
    {
      "inputs": [
        {
          "internalType": "address",
          "name": "owner",
          "type": "address"
        }
      ],
      "name": "balanceOf",
      "outputs": [
        {
          "internalType": "uint256",
          "name": "",
          "type": "uint256"
        }
      ],
      "stateMutability": "view",
      "type": "function",
      "constant": true
    },
    {
      "inputs": [],
      "name": "getAdmins",
      "outputs": [
        {
          "internalType": "address[]",
          "name": "admins",
          "type": "address[]"
        }
      ],
      "stateMutability": "view",
      "type": "function",
      "constant": true
    },
    {
      "inputs": [
        {
          "internalType": "uint256",
          "name": "tokenId",
          "type": "uint256"
        }
      ],
      "name": "getApproved",
      "outputs": [
        {
          "internalType": "address",
          "name": "",
          "type": "address"
        }
      ],
      "stateMutability": "view",
      "type": "function",
      "constant": true
    },
    {
      "inputs": [
        {
          "internalType": "address",
          "name": "admin",
          "type": "address"
        }
      ],
      "name": "isAdmin",
      "outputs": [
        {
          "internalType": "bool",
          "name": "",
          "type": "bool"
        }
      ],
      "stateMutability": "view",
      "type": "function",
      "constant": true
    },
    {
      "inputs": [
        {
          "internalType": "address",
          "name": "owner",
          "type": "address"
        },
        {
          "internalType": "address",
          "name": "operator",
          "type": "address"
        }
      ],
      "name": "isApprovedForAll",
      "outputs": [
        {
          "internalType": "bool",
          "name": "",
          "type": "bool"
        }
      ],
      "stateMutability": "view",
      "type": "function",
      "constant": true
    },
    {
      "inputs": [],
      "name": "name",
      "outputs": [
        {
          "internalType": "string",
          "name": "",
          "type": "string"
        }
      ],
      "stateMutability": "view",
      "type": "function",
      "constant": true
    },
    {
      "inputs": [],
      "name": "owner",
      "outputs": [
        {
          "internalType": "address",
          "name": "",
          "type": "address"
        }
      ],
      "stateMutability": "view",
      "type": "function",
      "constant": true
    },
    {
      "inputs": [
        {
          "internalType": "uint256",
          "name": "tokenId",
          "type": "uint256"
        }
      ],
      "name": "ownerOf",
      "outputs": [
        {
          "internalType": "address",
          "name": "",
          "type": "address"
        }
      ],
      "stateMutability": "view",
      "type": "function",
      "constant": true
    },
    {
      "inputs": [],
      "name": "renounceOwnership",
      "outputs": [],
      "stateMutability": "nonpayable",
      "type": "function"
    },
    {
      "inputs": [
        {
          "internalType": "address",
          "name": "admin",
          "type": "address"
        }
      ],
      "name": "revokeAdmin",
      "outputs": [],
      "stateMutability": "nonpayable",
      "type": "function"
    },
    {
      "inputs": [
        {
          "internalType": "address",
          "name": "from",
          "type": "address"
        },
        {
          "internalType": "address",
          "name": "to",
          "type": "address"
        },
        {
          "internalType": "uint256",
          "name": "tokenId",
          "type": "uint256"
        }
      ],
      "name": "safeTransferFrom",
      "outputs": [],
      "stateMutability": "nonpayable",
      "type": "function"
    },
    {
      "inputs": [
        {
          "internalType": "address",
          "name": "from",
          "type": "address"
        },
        {
          "internalType": "address",
          "name": "to",
          "type": "address"
        },
        {
          "internalType": "uint256",
          "name": "tokenId",
          "type": "uint256"
        },
        {
          "internalType": "bytes",
          "name": "_data",
          "type": "bytes"
        }
      ],
      "name": "safeTransferFrom",
      "outputs": [],
      "stateMutability": "nonpayable",
      "type": "function"
    },
    {
      "inputs": [
        {
          "internalType": "address",
          "name": "operator",
          "type": "address"
        },
        {
          "internalType": "bool",
          "name": "approved",
          "type": "bool"
        }
      ],
      "name": "setApprovalForAll",
      "outputs": [],
      "stateMutability": "nonpayable",
      "type": "function"
    },
    {
      "inputs": [],
      "name": "symbol",
      "outputs": [
        {
          "internalType": "string",
          "name": "",
          "type": "string"
        }
      ],
      "stateMutability": "view",
      "type": "function",
      "constant": true
    },
    {
      "inputs": [
        {
          "internalType": "uint256",
          "name": "tokenId",
          "type": "uint256"
        }
      ],
      "name": "tokenURI",
      "outputs": [
        {
          "internalType": "string",
          "name": "",
          "type": "string"
        }
      ],
      "stateMutability": "view",
      "type": "function",
      "constant": true
    },
    {
      "inputs": [
        {
          "internalType": "address",
          "name": "from",
          "type": "address"
        },
        {
          "internalType": "address",
          "name": "to",
          "type": "address"
        },
        {
          "internalType": "uint256",
          "name": "tokenId",
          "type": "uint256"
        }
      ],
      "name": "transferFrom",
      "outputs": [],
      "stateMutability": "nonpayable",
      "type": "function"
    },
    {
      "inputs": [
        {
          "internalType": "address",
          "name": "newOwner",
          "type": "address"
        }
      ],
      "name": "transferOwnership",
      "outputs": [],
      "stateMutability": "nonpayable",
      "type": "function"
    },
    {
      "inputs": [
        {
          "internalType": "bytes4",
          "name": "interfaceId",
          "type": "bytes4"
        }
      ],
      "name": "supportsInterface",
      "outputs": [
        {
          "internalType": "bool",
          "name": "",
          "type": "bool"
        }
      ],
      "stateMutability": "view",
      "type": "function",
      "constant": true
    },
    {
      "inputs": [
        {
          "internalType": "address",
          "name": "account",
          "type": "address"
        },
        {
          "internalType": "uint256",
          "name": "tokenQuantity",
          "type": "uint256"
        }
      ],
      "name": "mint",
      "outputs": [],
      "stateMutability": "nonpayable",
      "type": "function"
    },
    {
      "inputs": [
        {
          "internalType": "address",
          "name": "account",
          "type": "address"
        },
        {
          "internalType": "string",
          "name": "uri",
          "type": "string"
        }
      ],
      "name": "mintSpecial",
      "outputs": [],
      "stateMutability": "nonpayable",
      "type": "function"
    },
    {
      "inputs": [
        {
          "internalType": "address[]",
          "name": "_whitelistedAddresses",
          "type": "address[]"
        },
        {
          "internalType": "uint256[]",
          "name": "_amount",
          "type": "uint256[]"
        }
      ],
      "name": "loadWL",
      "outputs": [],
      "stateMutability": "nonpayable",
      "type": "function"
    },
    {
      "inputs": [
        {
          "internalType": "string[]",
          "name": "uris",
          "type": "string[]"
        }
      ],
      "name": "updateURIs",
      "outputs": [],
      "stateMutability": "nonpayable",
      "type": "function"
    },
    {
      "inputs": [],
      "name": "getURIs",
      "outputs": [
        {
          "internalType": "string[]",
          "name": "",
          "type": "string[]"
        }
      ],
      "stateMutability": "view",
      "type": "function",
      "constant": true
    },
    {
      "inputs": [
        {
          "internalType": "uint256",
          "name": "tokenId",
          "type": "uint256"
        }
      ],
      "name": "burn",
      "outputs": [],
      "stateMutability": "nonpayable",
      "type": "function"
    },
    {
      "inputs": [
        {
          "internalType": "address",
          "name": "_recipient",
          "type": "address"
        },
        {
          "internalType": "uint256",
          "name": "_amount",
          "type": "uint256"
        }
      ],
      "name": "setRoyalties",
      "outputs": [],
      "stateMutability": "nonpayable",
      "type": "function"
    },
    {
      "inputs": [
        {
          "internalType": "uint256",
          "name": "tokenId",
          "type": "uint256"
        },
        {
          "internalType": "uint256",
          "name": "salePrice",
          "type": "uint256"
        }
      ],
      "name": "royaltyInfo",
      "outputs": [
        {
          "internalType": "address",
          "name": "",
          "type": "address"
        },
        {
          "internalType": "uint256",
          "name": "",
          "type": "uint256"
        }
      ],
      "stateMutability": "view",
      "type": "function",
      "constant": true
    },
    {
      "inputs": [
        {
          "internalType": "address",
          "name": "recipient",
          "type": "address"
        }
      ],
      "name": "withdraw",
      "outputs": [],
      "stateMutability": "nonpayable",
      "type": "function"
    }
  ],
  "bytecode": "0x608060405267d02ab486cedc0000600e557364d91f12ece7362f91a6f8e7940cd55f05060b92601060006101000a81548173ffffffffffffffffffffffffffffffffffffffff021916908373ffffffffffffffffffffffffffffffffffffffff1602179055503480156200007257600080fd5b506040518060400160405280601281526020017f61647265616d77697468696e61647265616d00000000000000000000000000008152506040518060400160405280600581526020017f647265616d000000000000000000000000000000000000000000000000000000815250620000ff620000f36200013960201b60201c565b6200014160201b60201c565b81600190805190602001906200011792919062000205565b5080600290805190602001906200013092919062000205565b5050506200031a565b600033905090565b60008060009054906101000a900473ffffffffffffffffffffffffffffffffffffffff169050816000806101000a81548173ffffffffffffffffffffffffffffffffffffffff021916908373ffffffffffffffffffffffffffffffffffffffff1602179055508173ffffffffffffffffffffffffffffffffffffffff168173ffffffffffffffffffffffffffffffffffffffff167f8be0079c531659141344cd1fd0a4f28419497f9722a3daafe3b4186f6b6457e060405160405180910390a35050565b8280546200021390620002e4565b90600052602060002090601f01602090048101928262000237576000855562000283565b82601f106200025257805160ff191683800117855562000283565b8280016001018555821562000283579182015b828111156200028257825182559160200191906001019062000265565b5b50905062000292919062000296565b5090565b5b80821115620002b157600081600090555060010162000297565b5090565b7f4e487b7100000000000000000000000000000000000000000000000000000000600052602260045260246000fd5b60006002820490506001821680620002fd57607f821691505b60208210811415620003145762000313620002b5565b5b50919050565b6150f2806200032a6000396000f3fe608060405234801561001057600080fd5b50600436106101fb5760003560e01c8063582453621161011a57806395d89b41116100ad578063b88d4fde1161007c578063b88d4fde14610599578063bc8485a5146105b5578063c87b56dd146105e5578063e985e9c514610615578063f2fde38b14610645576101fb565b806395d89b4114610525578063a22cb46514610543578063a420ed3e1461055f578063b7951cf71461057d576101fb565b8063715018a6116100e9578063715018a6146104c35780638c7ea24b146104cd5780638cf77604146104e95780638da5cb5b14610507576101fb565b8063582453621461042b5780636352211e146104475780636d73e6691461047757806370a0823114610493576101fb565b80632a55205a1161019257806340c10f191161016157806340c10f19146103bb57806342842e0e146103d757806342966c68146103f357806351cff8d91461040f576101fb565b80632a55205a146103205780632d345670146103515780632f25662a1461036d57806331ae450b1461039d576101fb565b80631a04c4ec116101ce5780631a04c4ec1461029a57806323b872dd146102b657806324d7806c146102d257806328c5440f14610302576101fb565b806301ffc9a71461020057806306fdde0314610230578063081812fc1461024e578063095ea7b31461027e575b600080fd5b61021a60048036038101906102159190613590565b610661565b60405161022791906135d8565b60405180910390f35b6102386106fb565b604051610245919061368c565b60405180910390f35b610268600480360381019061026391906136e4565b61078d565b6040516102759190613752565b60405180910390f35b61029860048036038101906102939190613799565b610812565b005b6102b460048036038101906102af919061383e565b61092a565b005b6102d060048036038101906102cb919061389e565b610a30565b005b6102ec60048036038101906102e791906138f1565b610a90565b6040516102f991906135d8565b60405180910390f35b61030a610aea565b6040516103179190613a2a565b60405180910390f35b61033a60048036038101906103359190613a4c565b610c53565b604051610348929190613a9b565b60405180910390f35b61036b600480360381019061036691906138f1565b610d18565b005b610387600480360381019061038291906138f1565b610e20565b6040516103949190613ac4565b60405180910390f35b6103a5610e38565b6040516103b29190613b9d565b60405180910390f35b6103d560048036038101906103d09190613799565b610f1a565b005b6103f160048036038101906103ec919061389e565b611294565b005b61040d600480360381019061040891906136e4565b6112b4565b005b610429600480360381019061042491906138f1565b611310565b005b61044560048036038101906104409190613c6b565b6113ea565b005b610461600480360381019061045c91906136e4565b611526565b60405161046e9190613752565b60405180910390f35b610491600480360381019061048c91906138f1565b6115d8565b005b6104ad60048036038101906104a891906138f1565b6116df565b6040516104ba9190613ac4565b60405180910390f35b6104cb611797565b005b6104e760048036038101906104e29190613799565b61181f565b005b6104f16118fb565b6040516104fe9190613ac4565b60405180910390f35b61050f611901565b60405161051c9190613752565b60405180910390f35b61052d61192a565b60405161053a919061368c565b60405180910390f35b61055d60048036038101906105589190613d18565b6119bc565b005b6105676119d2565b6040516105749190613752565b60405180910390f35b61059760048036038101906105929190613dae565b6119f8565b005b6105b360048036038101906105ae9190613f2b565b611b1d565b005b6105cf60048036038101906105ca91906138f1565b611b7f565b6040516105dc9190613ac4565b60405180910390f35b6105ff60048036038101906105fa91906136e4565b611b97565b60405161060c919061368c565b60405180910390f35b61062f600480360381019061062a9190613fae565b611ce9565b60405161063c91906135d8565b60405180910390f35b61065f600480360381019061065a91906138f1565b611d7d565b005b600061066c82611e75565b8061067c575061067b82611eef565b5b806106e457507f2a55205a000000000000000000000000000000000000000000000000000000007bffffffffffffffffffffffffffffffffffffffffffffffffffffffff1916827bffffffffffffffffffffffffffffffffffffffffffffffffffffffff1916145b806106f457506106f382611e75565b5b9050919050565b60606001805461070a9061401d565b80601f01602080910402602001604051908101604052809291908181526020018280546107369061401d565b80156107835780601f1061075857610100808354040283529160200191610783565b820191906000526020600020905b81548152906001019060200180831161076657829003601f168201915b5050505050905090565b600061079882611fd1565b6107d7576040517f08c379a00000000000000000000000000000000000000000000000000000000081526004016107ce906140c1565b60405180910390fd5b6005600083815260200190815260200160002060009054906101000a900473ffffffffffffffffffffffffffffffffffffffff169050919050565b600061081d82611526565b90508073ffffffffffffffffffffffffffffffffffffffff168373ffffffffffffffffffffffffffffffffffffffff16141561088e576040517f08c379a000000000000000000000000000000000000000000000000000000000815260040161088590614153565b60405180910390fd5b8073ffffffffffffffffffffffffffffffffffffffff166108ad61203d565b73ffffffffffffffffffffffffffffffffffffffff1614806108dc57506108db816108d661203d565b611ce9565b5b61091b576040517f08c379a0000000000000000000000000000000000000000000000000000000008152600401610912906141e5565b60405180910390fd5b6109258383612045565b505050565b3373ffffffffffffffffffffffffffffffffffffffff16610949611901565b73ffffffffffffffffffffffffffffffffffffffff16148061097b575061097a3360086120fe90919063ffffffff16565b5b6109ba576040517f08c379a00000000000000000000000000000000000000000000000000000000081526004016109b190614277565b60405180910390fd5b6109c4601261212e565b60006109d06012612144565b90506109dc8482612152565b610a2a8184848080601f016020809104026020016040519081016040528093929190818152602001838380828437600081840152601f19601f82011690508083019250505050505050612170565b50505050565b610a41610a3b61203d565b826121e4565b610a80576040517f08c379a0000000000000000000000000000000000000000000000000000000008152600401610a7790614309565b60405180910390fd5b610a8b8383836122c2565b505050565b60008173ffffffffffffffffffffffffffffffffffffffff16610ab1611901565b73ffffffffffffffffffffffffffffffffffffffff161480610ae35750610ae28260086120fe90919063ffffffff16565b5b9050919050565b60603373ffffffffffffffffffffffffffffffffffffffff16610b0b611901565b73ffffffffffffffffffffffffffffffffffffffff161480610b3d5750610b3c3360086120fe90919063ffffffff16565b5b610b7c576040517f08c379a0000000000000000000000000000000000000000000000000000000008152600401610b7390614277565b60405180910390fd5b600d805480602002602001604051908101604052809291908181526020016000905b82821015610c4a578382906000526020600020018054610bbd9061401d565b80601f0160208091040260200160405190810160405280929190818152602001828054610be99061401d565b8015610c365780601f10610c0b57610100808354040283529160200191610c36565b820191906000526020600020905b815481529060010190602001808311610c1957829003601f168201915b505050505081526020019060010190610b9e565b50505050905090565b600080610c606012612144565b8411158015610cbe5750600073ffffffffffffffffffffffffffffffffffffffff16601160009054906101000a900473ffffffffffffffffffffffffffffffffffffffff1673ffffffffffffffffffffffffffffffffffffffff1614155b15610d0957601160009054906101000a900473ffffffffffffffffffffffffffffffffffffffff166064600f5485610cf69190614358565b610d0091906143e1565b91509150610d11565b600080915091505b9250929050565b610d2061203d565b73ffffffffffffffffffffffffffffffffffffffff16610d3e611901565b73ffffffffffffffffffffffffffffffffffffffff1614610d94576040517f08c379a0000000000000000000000000000000000000000000000000000000008152600401610d8b9061445e565b60405180910390fd5b610da88160086120fe90919063ffffffff16565b15610e1d573373ffffffffffffffffffffffffffffffffffffffff168173ffffffffffffffffffffffffffffffffffffffff167f7c0c3c84c67c85fcac635147348bfe374c24a1a93d0366d1cfe9d8853cbf89d560405160405180910390a3610e1b81600861251e90919063ffffffff16565b505b50565b600b6020528060005260406000206000915090505481565b6060610e44600861254e565b67ffffffffffffffff811115610e5d57610e5c613e00565b5b604051908082528060200260200182016040528015610e8b5781602001602082028036833780820191505090505b50905060005b610e9b600861254e565b811015610f1657610eb681600861256390919063ffffffff16565b828281518110610ec957610ec861447e565b5b602002602001019073ffffffffffffffffffffffffffffffffffffffff16908173ffffffffffffffffffffffffffffffffffffffff16815250508080610f0e906144ad565b915050610e91565b5090565b6000600d80549050118015610f2f5750600081115b610f6e576040517f08c379a0000000000000000000000000000000000000000000000000000000008152600401610f6590614568565b60405180910390fd5b600b60008373ffffffffffffffffffffffffffffffffffffffff1673ffffffffffffffffffffffffffffffffffffffff1681526020019081526020016000205481600c60008573ffffffffffffffffffffffffffffffffffffffff1673ffffffffffffffffffffffffffffffffffffffff16815260200190815260200160002054610ff99190614588565b11158061100b575061100a33610a90565b5b61104a576040517f08c379a000000000000000000000000000000000000000000000000000000000815260040161104190614650565b60405180910390fd5b61105333610a90565b61112a57601060009054906101000a900473ffffffffffffffffffffffffffffffffffffffff1673ffffffffffffffffffffffffffffffffffffffff166323b872dd33601160009054906101000a900473ffffffffffffffffffffffffffffffffffffffff1684600e546110c79190614358565b6040518463ffffffff1660e01b81526004016110e593929190614670565b6020604051808303816000875af1158015611104573d6000803e3d6000fd5b505050506040513d601f19601f8201168201806040525081019061112891906146bc565b505b6000600190505b81811161128f57611142601261212e565b600061114e6012612144565b905061115a8482612152565b6000600a60008381526020019081526020016000208190555061122481600d60008154811061118c5761118b61447e565b5b9060005260206000200180546111a19061401d565b80601f01602080910402602001604051908101604052809291908181526020018280546111cd9061401d565b801561121a5780601f106111ef5761010080835404028352916020019161121a565b820191906000526020600020905b8154815290600101906020018083116111fd57829003601f168201915b5050505050612170565b6001600c60008673ffffffffffffffffffffffffffffffffffffffff1673ffffffffffffffffffffffffffffffffffffffff16815260200190815260200160002060008282546112749190614588565b92505081905550508080611287906144ad565b915050611131565b505050565b6112af83838360405180602001604052806000815250611b1d565b505050565b6112c56112bf61203d565b826121e4565b611304576040517f08c379a00000000000000000000000000000000000000000000000000000000081526004016112fb9061475b565b60405180910390fd5b61130d8161257d565b50565b3373ffffffffffffffffffffffffffffffffffffffff1661132f611901565b73ffffffffffffffffffffffffffffffffffffffff16148061136157506113603360086120fe90919063ffffffff16565b5b6113a0576040517f08c379a000000000000000000000000000000000000000000000000000000000815260040161139790614277565b60405180910390fd5b8073ffffffffffffffffffffffffffffffffffffffff166108fc479081150290604051600060405180830381858888f193505050501580156113e6573d6000803e3d6000fd5b5050565b3373ffffffffffffffffffffffffffffffffffffffff16611409611901565b73ffffffffffffffffffffffffffffffffffffffff16148061143b575061143a3360086120fe90919063ffffffff16565b5b61147a576040517f08c379a000000000000000000000000000000000000000000000000000000000815260040161147190614277565b60405180910390fd5b60005b8484905081101561151f5782828281811061149b5761149a61447e565b5b90506020020135600b60008787858181106114b9576114b861447e565b5b90506020020160208101906114ce91906138f1565b73ffffffffffffffffffffffffffffffffffffffff1673ffffffffffffffffffffffffffffffffffffffff168152602001908152602001600020819055508080611517906144ad565b91505061147d565b5050505050565b6000806003600084815260200190815260200160002060009054906101000a900473ffffffffffffffffffffffffffffffffffffffff169050600073ffffffffffffffffffffffffffffffffffffffff168173ffffffffffffffffffffffffffffffffffffffff1614156115cf576040517f08c379a00000000000000000000000000000000000000000000000000000000081526004016115c6906147ed565b60405180910390fd5b80915050919050565b6115e061203d565b73ffffffffffffffffffffffffffffffffffffffff166115fe611901565b73ffffffffffffffffffffffffffffffffffffffff1614611654576040517f08c379a000000000000000000000000000000000000000000000000000000000815260040161164b9061445e565b60405180910390fd5b6116688160086120fe90919063ffffffff16565b6116dc573373ffffffffffffffffffffffffffffffffffffffff168173ffffffffffffffffffffffffffffffffffffffff167f7e1a1a08d52e4ba0e21554733d66165fd5151f99460116223d9e3a608eec5cb160405160405180910390a36116da8160086125d090919063ffffffff16565b505b50565b60008073ffffffffffffffffffffffffffffffffffffffff168273ffffffffffffffffffffffffffffffffffffffff161415611750576040517f08c379a00000000000000000000000000000000000000000000000000000000081526004016117479061487f565b60405180910390fd5b600460008373ffffffffffffffffffffffffffffffffffffffff1673ffffffffffffffffffffffffffffffffffffffff168152602001908152602001600020549050919050565b61179f61203d565b73ffffffffffffffffffffffffffffffffffffffff166117bd611901565b73ffffffffffffffffffffffffffffffffffffffff1614611813576040517f08c379a000000000000000000000000000000000000000000000000000000000815260040161180a9061445e565b60405180910390fd5b61181d6000612600565b565b3373ffffffffffffffffffffffffffffffffffffffff1661183e611901565b73ffffffffffffffffffffffffffffffffffffffff161480611870575061186f3360086120fe90919063ffffffff16565b5b6118af576040517f08c379a00000000000000000000000000000000000000000000000000000000081526004016118a690614277565b60405180910390fd5b81601160006101000a81548173ffffffffffffffffffffffffffffffffffffffff021916908373ffffffffffffffffffffffffffffffffffffffff16021790555080600f819055505050565b600e5481565b60008060009054906101000a900473ffffffffffffffffffffffffffffffffffffffff16905090565b6060600280546119399061401d565b80601f01602080910402602001604051908101604052809291908181526020018280546119659061401d565b80156119b25780601f10611987576101008083540402835291602001916119b2565b820191906000526020600020905b81548152906001019060200180831161199557829003601f168201915b5050505050905090565b6119ce6119c761203d565b83836126c4565b5050565b601060009054906101000a900473ffffffffffffffffffffffffffffffffffffffff1681565b3373ffffffffffffffffffffffffffffffffffffffff16611a17611901565b73ffffffffffffffffffffffffffffffffffffffff161480611a495750611a483360086120fe90919063ffffffff16565b5b611a88576040517f08c379a0000000000000000000000000000000000000000000000000000000008152600401611a7f90614277565b60405180910390fd5b600d6000611a969190613376565b60005b82829050811015611b1857600d838383818110611ab957611ab861447e565b5b9050602002810190611acb91906148ae565b90918060018154018082558091505060019003906000526020600020016000909192909192909192909192509190611b04929190613397565b508080611b10906144ad565b915050611a99565b505050565b611b2e611b2861203d565b836121e4565b611b6d576040517f08c379a0000000000000000000000000000000000000000000000000000000008152600401611b6490614309565b60405180910390fd5b611b7984848484612831565b50505050565b600c6020528060005260406000206000915090505481565b6060611ba282611fd1565b611be1576040517f08c379a0000000000000000000000000000000000000000000000000000000008152600401611bd890614983565b60405180910390fd5b6000600760008481526020019081526020016000208054611c019061401d565b80601f0160208091040260200160405190810160405280929190818152602001828054611c2d9061401d565b8015611c7a5780601f10611c4f57610100808354040283529160200191611c7a565b820191906000526020600020905b815481529060010190602001808311611c5d57829003601f168201915b505050505090506000611c8b61288d565b9050600081511415611ca1578192505050611ce4565b600082511115611cd6578082604051602001611cbe9291906149df565b60405160208183030381529060405292505050611ce4565b611cdf846128a4565b925050505b919050565b6000600660008473ffffffffffffffffffffffffffffffffffffffff1673ffffffffffffffffffffffffffffffffffffffff16815260200190815260200160002060008373ffffffffffffffffffffffffffffffffffffffff1673ffffffffffffffffffffffffffffffffffffffff16815260200190815260200160002060009054906101000a900460ff16905092915050565b611d8561203d565b73ffffffffffffffffffffffffffffffffffffffff16611da3611901565b73ffffffffffffffffffffffffffffffffffffffff1614611df9576040517f08c379a0000000000000000000000000000000000000000000000000000000008152600401611df09061445e565b60405180910390fd5b600073ffffffffffffffffffffffffffffffffffffffff168173ffffffffffffffffffffffffffffffffffffffff161415611e69576040517f08c379a0000000000000000000000000000000000000000000000000000000008152600401611e6090614a75565b60405180910390fd5b611e7281612600565b50565b60007f553e757e000000000000000000000000000000000000000000000000000000007bffffffffffffffffffffffffffffffffffffffffffffffffffffffff1916827bffffffffffffffffffffffffffffffffffffffffffffffffffffffff19161480611ee85750611ee782611eef565b5b9050919050565b60007f80ac58cd000000000000000000000000000000000000000000000000000000007bffffffffffffffffffffffffffffffffffffffffffffffffffffffff1916827bffffffffffffffffffffffffffffffffffffffffffffffffffffffff19161480611fba57507f5b5e139f000000000000000000000000000000000000000000000000000000007bffffffffffffffffffffffffffffffffffffffffffffffffffffffff1916827bffffffffffffffffffffffffffffffffffffffffffffffffffffffff1916145b80611fca5750611fc98261294b565b5b9050919050565b60008073ffffffffffffffffffffffffffffffffffffffff166003600084815260200190815260200160002060009054906101000a900473ffffffffffffffffffffffffffffffffffffffff1673ffffffffffffffffffffffffffffffffffffffff1614159050919050565b600033905090565b816005600083815260200190815260200160002060006101000a81548173ffffffffffffffffffffffffffffffffffffffff021916908373ffffffffffffffffffffffffffffffffffffffff160217905550808273ffffffffffffffffffffffffffffffffffffffff166120b883611526565b73ffffffffffffffffffffffffffffffffffffffff167f8c5be1e5ebec7d5bd14f71427d1e84f3dd0314c0f7b2291e5b200ac8c7c3b92560405160405180910390a45050565b6000612126836000018373ffffffffffffffffffffffffffffffffffffffff1660001b6129b5565b905092915050565b6001816000016000828254019250508190555050565b600081600001549050919050565b61216c8282604051806020016040528060008152506129d8565b5050565b61217982611fd1565b6121b8576040517f08c379a00000000000000000000000000000000000000000000000000000000081526004016121af90614b07565b60405180910390fd5b806007600084815260200190815260200160002090805190602001906121df92919061341d565b505050565b60006121ef82611fd1565b61222e576040517f08c379a000000000000000000000000000000000000000000000000000000000815260040161222590614b99565b60405180910390fd5b600061223983611526565b90508073ffffffffffffffffffffffffffffffffffffffff168473ffffffffffffffffffffffffffffffffffffffff1614806122a857508373ffffffffffffffffffffffffffffffffffffffff166122908461078d565b73ffffffffffffffffffffffffffffffffffffffff16145b806122b957506122b88185611ce9565b5b91505092915050565b8273ffffffffffffffffffffffffffffffffffffffff166122e282611526565b73ffffffffffffffffffffffffffffffffffffffff1614612338576040517f08c379a000000000000000000000000000000000000000000000000000000000815260040161232f90614c2b565b60405180910390fd5b600073ffffffffffffffffffffffffffffffffffffffff168273ffffffffffffffffffffffffffffffffffffffff1614156123a8576040517f08c379a000000000000000000000000000000000000000000000000000000000815260040161239f90614cbd565b60405180910390fd5b6123b3838383612a33565b6123be600082612045565b6001600460008573ffffffffffffffffffffffffffffffffffffffff1673ffffffffffffffffffffffffffffffffffffffff168152602001908152602001600020600082825461240e9190614cdd565b925050819055506001600460008473ffffffffffffffffffffffffffffffffffffffff1673ffffffffffffffffffffffffffffffffffffffff16815260200190815260200160002060008282546124659190614588565b92505081905550816003600083815260200190815260200160002060006101000a81548173ffffffffffffffffffffffffffffffffffffffff021916908373ffffffffffffffffffffffffffffffffffffffff160217905550808273ffffffffffffffffffffffffffffffffffffffff168473ffffffffffffffffffffffffffffffffffffffff167fddf252ad1be2c89b69c2b068fc378daa952ba7f163c4a11628f55a4df523b3ef60405160405180910390a4505050565b6000612546836000018373ffffffffffffffffffffffffffffffffffffffff1660001b612ade565b905092915050565b600061255c82600001612bf2565b9050919050565b60006125728360000183612c03565b60001c905092915050565b61258681612c2e565b60006007600083815260200190815260200160002080546125a69061401d565b9050146125cd576007600082815260200190815260200160002060006125cc91906134a3565b5b50565b60006125f8836000018373ffffffffffffffffffffffffffffffffffffffff1660001b612d3f565b905092915050565b60008060009054906101000a900473ffffffffffffffffffffffffffffffffffffffff169050816000806101000a81548173ffffffffffffffffffffffffffffffffffffffff021916908373ffffffffffffffffffffffffffffffffffffffff1602179055508173ffffffffffffffffffffffffffffffffffffffff168173ffffffffffffffffffffffffffffffffffffffff167f8be0079c531659141344cd1fd0a4f28419497f9722a3daafe3b4186f6b6457e060405160405180910390a35050565b8173ffffffffffffffffffffffffffffffffffffffff168373ffffffffffffffffffffffffffffffffffffffff161415612733576040517f08c379a000000000000000000000000000000000000000000000000000000000815260040161272a90614d5d565b60405180910390fd5b80600660008573ffffffffffffffffffffffffffffffffffffffff1673ffffffffffffffffffffffffffffffffffffffff16815260200190815260200160002060008473ffffffffffffffffffffffffffffffffffffffff1673ffffffffffffffffffffffffffffffffffffffff16815260200190815260200160002060006101000a81548160ff0219169083151502179055508173ffffffffffffffffffffffffffffffffffffffff168373ffffffffffffffffffffffffffffffffffffffff167f17307eab39ab6107e8899845ad3d59bd9653f200f220920489ca2b5937696c318360405161282491906135d8565b60405180910390a3505050565b61283c8484846122c2565b61284884848484612daf565b612887576040517f08c379a000000000000000000000000000000000000000000000000000000000815260040161287e90614def565b60405180910390fd5b50505050565b606060405180602001604052806000815250905090565b60606128af82611fd1565b6128ee576040517f08c379a00000000000000000000000000000000000000000000000000000000081526004016128e590614e81565b60405180910390fd5b60006128f861288d565b905060008151116129185760405180602001604052806000815250612943565b8061292284612f37565b6040516020016129339291906149df565b6040516020818303038152906040525b915050919050565b60007f01ffc9a7000000000000000000000000000000000000000000000000000000007bffffffffffffffffffffffffffffffffffffffffffffffffffffffff1916827bffffffffffffffffffffffffffffffffffffffffffffffffffffffff1916149050919050565b600080836001016000848152602001908152602001600020541415905092915050565b6129e28383613098565b6129ef6000848484612daf565b612a2e576040517f08c379a0000000000000000000000000000000000000000000000000000000008152600401612a2590614def565b60405180910390fd5b505050565b600073ffffffffffffffffffffffffffffffffffffffff168273ffffffffffffffffffffffffffffffffffffffff1614158015612a9d5750600073ffffffffffffffffffffffffffffffffffffffff168373ffffffffffffffffffffffffffffffffffffffff1614155b15612ad9576001600d80549050612ab49190614cdd565b600a6000838152602001908152602001600020541015612ad857612ad781613266565b5b5b505050565b60008083600101600084815260200190815260200160002054905060008114612be6576000600182612b109190614cdd565b9050600060018660000180549050612b289190614cdd565b9050818114612b97576000866000018281548110612b4957612b4861447e565b5b9060005260206000200154905080876000018481548110612b6d57612b6c61447e565b5b90600052602060002001819055508387600101600083815260200190815260200160002081905550505b85600001805480612bab57612baa614ea1565b5b600190038181906000526020600020016000905590558560010160008681526020019081526020016000206000905560019350505050612bec565b60009150505b92915050565b600081600001805490509050919050565b6000826000018281548110612c1b57612c1a61447e565b5b9060005260206000200154905092915050565b6000612c3982611526565b9050612c4781600084612a33565b612c52600083612045565b6001600460008373ffffffffffffffffffffffffffffffffffffffff1673ffffffffffffffffffffffffffffffffffffffff1681526020019081526020016000206000828254612ca29190614cdd565b925050819055506003600083815260200190815260200160002060006101000a81549073ffffffffffffffffffffffffffffffffffffffff021916905581600073ffffffffffffffffffffffffffffffffffffffff168273ffffffffffffffffffffffffffffffffffffffff167fddf252ad1be2c89b69c2b068fc378daa952ba7f163c4a11628f55a4df523b3ef60405160405180910390a45050565b6000612d4b83836129b5565b612da4578260000182908060018154018082558091505060019003906000526020600020016000909190919091505582600001805490508360010160008481526020019081526020016000208190555060019050612da9565b600090505b92915050565b6000612dd08473ffffffffffffffffffffffffffffffffffffffff16613363565b15612f2a578373ffffffffffffffffffffffffffffffffffffffff1663150b7a02612df961203d565b8786866040518563ffffffff1660e01b8152600401612e1b9493929190614f25565b6020604051808303816000875af1925050508015612e5757506040513d601f19601f82011682018060405250810190612e549190614f86565b60015b612eda573d8060008114612e87576040519150601f19603f3d011682016040523d82523d6000602084013e612e8c565b606091505b50600081511415612ed2576040517f08c379a0000000000000000000000000000000000000000000000000000000008152600401612ec990614def565b60405180910390fd5b805181602001fd5b63150b7a0260e01b7bffffffffffffffffffffffffffffffffffffffffffffffffffffffff1916817bffffffffffffffffffffffffffffffffffffffffffffffffffffffff191614915050612f2f565b600190505b949350505050565b60606000821415612f7f576040518060400160405280600181526020017f30000000000000000000000000000000000000000000000000000000000000008152509050613093565b600082905060005b60008214612fb1578080612f9a906144ad565b915050600a82612faa91906143e1565b9150612f87565b60008167ffffffffffffffff811115612fcd57612fcc613e00565b5b6040519080825280601f01601f191660200182016040528015612fff5781602001600182028036833780820191505090505b5090505b6000851461308c576001826130189190614cdd565b9150600a856130279190614fb3565b60306130339190614588565b60f81b8183815181106130495761304861447e565b5b60200101907effffffffffffffffffffffffffffffffffffffffffffffffffffffffffffff1916908160001a905350600a8561308591906143e1565b9450613003565b8093505050505b919050565b600073ffffffffffffffffffffffffffffffffffffffff168273ffffffffffffffffffffffffffffffffffffffff161415613108576040517f08c379a00000000000000000000000000000000000000000000000000000000081526004016130ff90615030565b60405180910390fd5b61311181611fd1565b15613151576040517f08c379a00000000000000000000000000000000000000000000000000000000081526004016131489061509c565b60405180910390fd5b61315d60008383612a33565b6001600460008473ffffffffffffffffffffffffffffffffffffffff1673ffffffffffffffffffffffffffffffffffffffff16815260200190815260200160002060008282546131ad9190614588565b92505081905550816003600083815260200190815260200160002060006101000a81548173ffffffffffffffffffffffffffffffffffffffff021916908373ffffffffffffffffffffffffffffffffffffffff160217905550808273ffffffffffffffffffffffffffffffffffffffff16600073ffffffffffffffffffffffffffffffffffffffff167fddf252ad1be2c89b69c2b068fc378daa952ba7f163c4a11628f55a4df523b3ef60405160405180910390a45050565b6001600a6000838152602001908152602001600020546132869190614588565b600a60008381526020019081526020016000208190555061336081600d600a600085815260200190815260200160002054815481106132c8576132c761447e565b5b9060005260206000200180546132dd9061401d565b80601f01602080910402602001604051908101604052809291908181526020018280546133099061401d565b80156133565780601f1061332b57610100808354040283529160200191613356565b820191906000526020600020905b81548152906001019060200180831161333957829003601f168201915b5050505050612170565b50565b600080823b905060008111915050919050565b508054600082559060005260206000209081019061339491906134e3565b50565b8280546133a39061401d565b90600052602060002090601f0160209004810192826133c5576000855561340c565b82601f106133de57803560ff191683800117855561340c565b8280016001018555821561340c579182015b8281111561340b5782358255916020019190600101906133f0565b5b5090506134199190613507565b5090565b8280546134299061401d565b90600052602060002090601f01602090048101928261344b5760008555613492565b82601f1061346457805160ff1916838001178555613492565b82800160010185558215613492579182015b82811115613491578251825591602001919060010190613476565b5b50905061349f9190613507565b5090565b5080546134af9061401d565b6000825580601f106134c157506134e0565b601f0160209004906000526020600020908101906134df9190613507565b5b50565b5b8082111561350357600081816134fa91906134a3565b506001016134e4565b5090565b5b80821115613520576000816000905550600101613508565b5090565b6000604051905090565b600080fd5b600080fd5b60007fffffffff0000000000000000000000000000000000000000000000000000000082169050919050565b61356d81613538565b811461357857600080fd5b50565b60008135905061358a81613564565b92915050565b6000602082840312156135a6576135a561352e565b5b60006135b48482850161357b565b91505092915050565b60008115159050919050565b6135d2816135bd565b82525050565b60006020820190506135ed60008301846135c9565b92915050565b600081519050919050565b600082825260208201905092915050565b60005b8381101561362d578082015181840152602081019050613612565b8381111561363c576000848401525b50505050565b6000601f19601f8301169050919050565b600061365e826135f3565b61366881856135fe565b935061367881856020860161360f565b61368181613642565b840191505092915050565b600060208201905081810360008301526136a68184613653565b905092915050565b6000819050919050565b6136c1816136ae565b81146136cc57600080fd5b50565b6000813590506136de816136b8565b92915050565b6000602082840312156136fa576136f961352e565b5b6000613708848285016136cf565b91505092915050565b600073ffffffffffffffffffffffffffffffffffffffff82169050919050565b600061373c82613711565b9050919050565b61374c81613731565b82525050565b60006020820190506137676000830184613743565b92915050565b61377681613731565b811461378157600080fd5b50565b6000813590506137938161376d565b92915050565b600080604083850312156137b0576137af61352e565b5b60006137be85828601613784565b92505060206137cf858286016136cf565b9150509250929050565b600080fd5b600080fd5b600080fd5b60008083601f8401126137fe576137fd6137d9565b5b8235905067ffffffffffffffff81111561381b5761381a6137de565b5b602083019150836001820283011115613837576138366137e3565b5b9250929050565b6000806000604084860312156138575761385661352e565b5b600061386586828701613784565b935050602084013567ffffffffffffffff81111561388657613885613533565b5b613892868287016137e8565b92509250509250925092565b6000806000606084860312156138b7576138b661352e565b5b60006138c586828701613784565b93505060206138d686828701613784565b92505060406138e7868287016136cf565b9150509250925092565b6000602082840312156139075761390661352e565b5b600061391584828501613784565b91505092915050565b600081519050919050565b600082825260208201905092915050565b6000819050602082019050919050565b600082825260208201905092915050565b6000613966826135f3565b613970818561394a565b935061398081856020860161360f565b61398981613642565b840191505092915050565b60006139a0838361395b565b905092915050565b6000602082019050919050565b60006139c08261391e565b6139ca8185613929565b9350836020820285016139dc8561393a565b8060005b85811015613a1857848403895281516139f98582613994565b9450613a04836139a8565b925060208a019950506001810190506139e0565b50829750879550505050505092915050565b60006020820190508181036000830152613a4481846139b5565b905092915050565b60008060408385031215613a6357613a6261352e565b5b6000613a71858286016136cf565b9250506020613a82858286016136cf565b9150509250929050565b613a95816136ae565b82525050565b6000604082019050613ab06000830185613743565b613abd6020830184613a8c565b9392505050565b6000602082019050613ad96000830184613a8c565b92915050565b600081519050919050565b600082825260208201905092915050565b6000819050602082019050919050565b613b1481613731565b82525050565b6000613b268383613b0b565b60208301905092915050565b6000602082019050919050565b6000613b4a82613adf565b613b548185613aea565b9350613b5f83613afb565b8060005b83811015613b90578151613b778882613b1a565b9750613b8283613b32565b925050600181019050613b63565b5085935050505092915050565b60006020820190508181036000830152613bb78184613b3f565b905092915050565b60008083601f840112613bd557613bd46137d9565b5b8235905067ffffffffffffffff811115613bf257613bf16137de565b5b602083019150836020820283011115613c0e57613c0d6137e3565b5b9250929050565b60008083601f840112613c2b57613c2a6137d9565b5b8235905067ffffffffffffffff811115613c4857613c476137de565b5b602083019150836020820283011115613c6457613c636137e3565b5b9250929050565b60008060008060408587031215613c8557613c8461352e565b5b600085013567ffffffffffffffff811115613ca357613ca2613533565b5b613caf87828801613bbf565b9450945050602085013567ffffffffffffffff811115613cd257613cd1613533565b5b613cde87828801613c15565b925092505092959194509250565b613cf5816135bd565b8114613d0057600080fd5b50565b600081359050613d1281613cec565b92915050565b60008060408385031215613d2f57613d2e61352e565b5b6000613d3d85828601613784565b9250506020613d4e85828601613d03565b9150509250929050565b60008083601f840112613d6e57613d6d6137d9565b5b8235905067ffffffffffffffff811115613d8b57613d8a6137de565b5b602083019150836020820283011115613da757613da66137e3565b5b9250929050565b60008060208385031215613dc557613dc461352e565b5b600083013567ffffffffffffffff811115613de357613de2613533565b5b613def85828601613d58565b92509250509250929050565b600080fd5b7f4e487b7100000000000000000000000000000000000000000000000000000000600052604160045260246000fd5b613e3882613642565b810181811067ffffffffffffffff82111715613e5757613e56613e00565b5b80604052505050565b6000613e6a613524565b9050613e768282613e2f565b919050565b600067ffffffffffffffff821115613e9657613e95613e00565b5b613e9f82613642565b9050602081019050919050565b82818337600083830152505050565b6000613ece613ec984613e7b565b613e60565b905082815260208101848484011115613eea57613ee9613dfb565b5b613ef5848285613eac565b509392505050565b600082601f830112613f1257613f116137d9565b5b8135613f22848260208601613ebb565b91505092915050565b60008060008060808587031215613f4557613f4461352e565b5b6000613f5387828801613784565b9450506020613f6487828801613784565b9350506040613f75878288016136cf565b925050606085013567ffffffffffffffff811115613f9657613f95613533565b5b613fa287828801613efd565b91505092959194509250565b60008060408385031215613fc557613fc461352e565b5b6000613fd385828601613784565b9250506020613fe485828601613784565b9150509250929050565b7f4e487b7100000000000000000000000000000000000000000000000000000000600052602260045260246000fd5b6000600282049050600182168061403557607f821691505b6020821081141561404957614048613fee565b5b50919050565b7f4552433732313a20617070726f76656420717565727920666f72206e6f6e657860008201527f697374656e7420746f6b656e0000000000000000000000000000000000000000602082015250565b60006140ab602c836135fe565b91506140b68261404f565b604082019050919050565b600060208201905081810360008301526140da8161409e565b9050919050565b7f4552433732313a20617070726f76616c20746f2063757272656e74206f776e6560008201527f7200000000000000000000000000000000000000000000000000000000000000602082015250565b600061413d6021836135fe565b9150614148826140e1565b604082019050919050565b6000602082019050818103600083015261416c81614130565b9050919050565b7f4552433732313a20617070726f76652063616c6c6572206973206e6f74206f7760008201527f6e6572206e6f7220617070726f76656420666f7220616c6c0000000000000000602082015250565b60006141cf6038836135fe565b91506141da82614173565b604082019050919050565b600060208201905081810360008301526141fe816141c2565b9050919050565b7f41646d696e436f6e74726f6c3a204d757374206265206f776e6572206f72206160008201527f646d696e00000000000000000000000000000000000000000000000000000000602082015250565b60006142616024836135fe565b915061426c82614205565b604082019050919050565b6000602082019050818103600083015261429081614254565b9050919050565b7f4552433732313a207472616e736665722063616c6c6572206973206e6f74206f60008201527f776e6572206e6f7220617070726f766564000000000000000000000000000000602082015250565b60006142f36031836135fe565b91506142fe82614297565b604082019050919050565b60006020820190508181036000830152614322816142e6565b9050919050565b7f4e487b7100000000000000000000000000000000000000000000000000000000600052601160045260246000fd5b6000614363826136ae565b915061436e836136ae565b9250817fffffffffffffffffffffffffffffffffffffffffffffffffffffffffffffffff04831182151516156143a7576143a6614329565b5b828202905092915050565b7f4e487b7100000000000000000000000000000000000000000000000000000000600052601260045260246000fd5b60006143ec826136ae565b91506143f7836136ae565b925082614407576144066143b2565b5b828204905092915050565b7f4f776e61626c653a2063616c6c6572206973206e6f7420746865206f776e6572600082015250565b60006144486020836135fe565b915061445382614412565b602082019050919050565b600060208201905081810360008301526144778161443b565b9050919050565b7f4e487b7100000000000000000000000000000000000000000000000000000000600052603260045260246000fd5b60006144b8826136ae565b91507fffffffffffffffffffffffffffffffffffffffffffffffffffffffffffffffff8214156144eb576144ea614329565b5b600182019050919050565b7f416464206120555249206265666f7265206d696e74696e6720616e64206d696e60008201527f74206120706f736974697665206e756d626572206f6620746f6b656e73000000602082015250565b6000614552603d836135fe565b915061455d826144f6565b604082019050919050565b6000602082019050818103600083015261458181614545565b9050919050565b6000614593826136ae565b915061459e836136ae565b9250827fffffffffffffffffffffffffffffffffffffffffffffffffffffffffffffffff038211156145d3576145d2614329565b5b828201905092915050565b7f596f7520617265206e6f742077686974656c697374656420666f72207468617460008201527f206d616e7920746f6b656e732100000000000000000000000000000000000000602082015250565b600061463a602d836135fe565b9150614645826145de565b604082019050919050565b600060208201905081810360008301526146698161462d565b9050919050565b60006060820190506146856000830186613743565b6146926020830185613743565b61469f6040830184613a8c565b949350505050565b6000815190506146b681613cec565b92915050565b6000602082840312156146d2576146d161352e565b5b60006146e0848285016146a7565b91505092915050565b7f4552433732314275726e61626c653a2063616c6c6572206973206e6f74206f7760008201527f6e6572206e6f7220617070726f76656400000000000000000000000000000000602082015250565b60006147456030836135fe565b9150614750826146e9565b604082019050919050565b6000602082019050818103600083015261477481614738565b9050919050565b7f4552433732313a206f776e657220717565727920666f72206e6f6e657869737460008201527f656e7420746f6b656e0000000000000000000000000000000000000000000000602082015250565b60006147d76029836135fe565b91506147e28261477b565b604082019050919050565b60006020820190508181036000830152614806816147ca565b9050919050565b7f4552433732313a2062616c616e636520717565727920666f7220746865207a6560008201527f726f206164647265737300000000000000000000000000000000000000000000602082015250565b6000614869602a836135fe565b91506148748261480d565b604082019050919050565b600060208201905081810360008301526148988161485c565b9050919050565b600080fd5b600080fd5b600080fd5b600080833560016020038436030381126148cb576148ca61489f565b5b80840192508235915067ffffffffffffffff8211156148ed576148ec6148a4565b5b602083019250600182023603831315614909576149086148a9565b5b509250929050565b7f45524337323155524953746f726167653a2055524920717565727920666f722060008201527f6e6f6e6578697374656e7420746f6b656e000000000000000000000000000000602082015250565b600061496d6031836135fe565b915061497882614911565b604082019050919050565b6000602082019050818103600083015261499c81614960565b9050919050565b600081905092915050565b60006149b9826135f3565b6149c381856149a3565b93506149d381856020860161360f565b80840191505092915050565b60006149eb82856149ae565b91506149f782846149ae565b91508190509392505050565b7f4f776e61626c653a206e6577206f776e657220697320746865207a65726f206160008201527f6464726573730000000000000000000000000000000000000000000000000000602082015250565b6000614a5f6026836135fe565b9150614a6a82614a03565b604082019050919050565b60006020820190508181036000830152614a8e81614a52565b9050919050565b7f45524337323155524953746f726167653a2055524920736574206f66206e6f6e60008201527f6578697374656e7420746f6b656e000000000000000000000000000000000000602082015250565b6000614af1602e836135fe565b9150614afc82614a95565b604082019050919050565b60006020820190508181036000830152614b2081614ae4565b9050919050565b7f4552433732313a206f70657261746f7220717565727920666f72206e6f6e657860008201527f697374656e7420746f6b656e0000000000000000000000000000000000000000602082015250565b6000614b83602c836135fe565b9150614b8e82614b27565b604082019050919050565b60006020820190508181036000830152614bb281614b76565b9050919050565b7f4552433732313a207472616e73666572206f6620746f6b656e2074686174206960008201527f73206e6f74206f776e0000000000000000000000000000000000000000000000602082015250565b6000614c156029836135fe565b9150614c2082614bb9565b604082019050919050565b60006020820190508181036000830152614c4481614c08565b9050919050565b7f4552433732313a207472616e7366657220746f20746865207a65726f2061646460008201527f7265737300000000000000000000000000000000000000000000000000000000602082015250565b6000614ca76024836135fe565b9150614cb282614c4b565b604082019050919050565b60006020820190508181036000830152614cd681614c9a565b9050919050565b6000614ce8826136ae565b9150614cf3836136ae565b925082821015614d0657614d05614329565b5b828203905092915050565b7f4552433732313a20617070726f766520746f2063616c6c657200000000000000600082015250565b6000614d476019836135fe565b9150614d5282614d11565b602082019050919050565b60006020820190508181036000830152614d7681614d3a565b9050919050565b7f4552433732313a207472616e7366657220746f206e6f6e20455243373231526560008201527f63656976657220696d706c656d656e7465720000000000000000000000000000602082015250565b6000614dd96032836135fe565b9150614de482614d7d565b604082019050919050565b60006020820190508181036000830152614e0881614dcc565b9050919050565b7f4552433732314d657461646174613a2055524920717565727920666f72206e6f60008201527f6e6578697374656e7420746f6b656e0000000000000000000000000000000000602082015250565b6000614e6b602f836135fe565b9150614e7682614e0f565b604082019050919050565b60006020820190508181036000830152614e9a81614e5e565b9050919050565b7f4e487b7100000000000000000000000000000000000000000000000000000000600052603160045260246000fd5b600081519050919050565b600082825260208201905092915050565b6000614ef782614ed0565b614f018185614edb565b9350614f1181856020860161360f565b614f1a81613642565b840191505092915050565b6000608082019050614f3a6000830187613743565b614f476020830186613743565b614f546040830185613a8c565b8181036060830152614f668184614eec565b905095945050505050565b600081519050614f8081613564565b92915050565b600060208284031215614f9c57614f9b61352e565b5b6000614faa84828501614f71565b91505092915050565b6000614fbe826136ae565b9150614fc9836136ae565b925082614fd957614fd86143b2565b5b828206905092915050565b7f4552433732313a206d696e7420746f20746865207a65726f2061646472657373600082015250565b600061501a6020836135fe565b915061502582614fe4565b602082019050919050565b600060208201905081810360008301526150498161500d565b9050919050565b7f4552433732313a20746f6b656e20616c7265616479206d696e74656400000000600082015250565b6000615086601c836135fe565b915061509182615050565b602082019050919050565b600060208201905081810360008301526150b581615079565b905091905056fea264697066735822122004ac000a4bc7e95dad5bb9e7db305b388eb97856f13985cc77a8a04836c2077264736f6c634300080b0033",
  "immutableReferences": {},
  "source": "// SPDX-License-Identifier: MIT\n\npragma solidity >= 0.8.11;\n\nimport \"@openzeppelin/contracts/token/ERC721/extensions/ERC721URIStorage.sol\";\nimport \"@openzeppelin/contracts/utils/Counters.sol\";\nimport \"@openzeppelin/contracts/token//ERC20/IERC20.sol\";\nimport \"@manifoldxyz/royalty-registry-solidity/contracts/specs/IEIP2981.sol\";\nimport \"@manifoldxyz/libraries-solidity/contracts/access/AdminControl.sol\";\n\n\n/////////////////////////////////////\n//                                 //\n//                                 //\n//    'a dream within a dream'     //\n//                                 //\n//    by @the_grecu                //\n//    & @smartcontrart             //\n//                                 //\n//                                 //\n/////////////////////////////////////\n\n\ncontract adreamwithinadream is Ownable, IEIP2981, ERC721URIStorage, AdminControl {\n    \n    using Counters for Counters.Counter;\n    mapping (uint256 => uint256) _urisByToken;\n    mapping (address => uint256) public _tokensWhitelisted;\n    mapping (address => uint256) public _tokensClaimed;\n\n    string [] _uris;\n    uint256 public ashPrice = 15000000000000000000; // 15 ASH\n    uint256 _royalties_amount; \n    address public ashContract = 0x64D91f12Ece7362F91A6f8E7940Cd55F05060b92;\n    address _royalties_recipient;\n\n    Counters.Counter private _nextTokenId;\n\n    constructor () ERC721(\"adreamwithinadream\", \"dream\") {\n    }\n\n    function supportsInterface(bytes4 interfaceId)\n        public\n        view\n        virtual\n        override(ERC721, AdminControl)\n        returns (bool)\n    {\n        return\n        AdminControl.supportsInterface(interfaceId) ||\n        ERC721.supportsInterface(interfaceId) ||\n        interfaceId == type(IEIP2981).interfaceId ||\n        super.supportsInterface(interfaceId);\n    }\n\n    function mint(\n        address account,\n        uint256 tokenQuantity\n    ) external{\n        require(_uris.length > 0 && tokenQuantity > 0, \"Add a URI before minting and mint a positive number of tokens\");\n        require( _tokensClaimed[account] + tokenQuantity <= _tokensWhitelisted[account] || isAdmin(msg.sender), \"You are not whitelisted for that many tokens!\");\n        if(!isAdmin(msg.sender)){\n            IERC20(ashContract).transferFrom(msg.sender, _royalties_recipient, ashPrice * tokenQuantity);\n        }\n        for(uint256 i = 1; i <= tokenQuantity; i++){\n            _nextTokenId.increment();\n            uint256 tokenId = _nextTokenId.current();\n            _safeMint(account, tokenId);\n            _urisByToken[tokenId] = 0;\n            _setTokenURI(tokenId, _uris[0]);\n            _tokensClaimed[account] += 1; \n        }\n    }\n\n    function mintSpecial(address account, string calldata uri) external adminRequired{\n        _nextTokenId.increment();\n        uint256 tokenId = _nextTokenId.current();\n        _safeMint(account, tokenId);\n        _setTokenURI(tokenId, uri);\n    }\n\n    function loadWL(\n        address[] calldata _whitelistedAddresses, \n        uint256[] calldata _amount\n    )external adminRequired{\n        for(uint256 i; i<_whitelistedAddresses.length; i++){\n            _tokensWhitelisted[_whitelistedAddresses[i]] = _amount[i];\n        }\n    }\n\n    function updateURIs(string [] calldata uris) public adminRequired{\n        delete _uris;\n        for(uint256 i=0; i < uris.length; i++){\n            _uris.push(uris[i]);\n        }\n    }\n\n    function getURIs()public view adminRequired returns ( string [] memory){\n        return _uris;\n    }\n    \n\n    function _incrementURI(\n        uint256 tokenId\n    ) private {\n        _urisByToken[tokenId] = _urisByToken[tokenId] + 1;\n        _setTokenURI(tokenId, _uris[_urisByToken[tokenId]]);\n    }\n\n   function _beforeTokenTransfer(\n        address from,\n        address to,\n        uint256 tokenId\n    ) internal override {\n        if(to != address(0) && from != address(0)){\n            if(_urisByToken[tokenId] < _uris.length - 1){\n                _incrementURI(tokenId);\n            }\n        }\n    }\n\n    function burn(uint256 tokenId) public {\n        require(_isApprovedOrOwner(_msgSender(), tokenId), \"ERC721Burnable: caller is not owner nor approved\");\n        _burn(tokenId);\n    }\n\n    function setRoyalties(address _recipient, uint256 _amount) external adminRequired {\n        _royalties_recipient = _recipient;\n        _royalties_amount = _amount;\n    }\n\n    function royaltyInfo(uint256 tokenId, uint256 salePrice) public override view returns (address, uint256) {\n        if(tokenId <= _nextTokenId.current() && _royalties_recipient != address(0)){\n            return (_royalties_recipient, (salePrice * _royalties_amount) / 100 );\n        }\n        return (address(0), 0);\n    }\n\n    function withdraw(address recipient) external adminRequired {\n        payable(recipient).transfer(address(this).balance);\n    }\n\n}",
  "sourcePath": "/Users/bct/Documents/Dev/NFT_dev/adreamwithinadream/contracts/adreamwithinadream.sol",
  "compiler": {
    "name": "solc",
    "version": "0.8.11+commit.d7f03943.Emscripten.clang"
  },
  "schemaVersion": "3.4.4",
  "updatedAt": "2022-03-03T00:47:06.865Z",
  "networkType": "ethereum",
  "devdoc": {
    "kind": "dev",
    "methods": {
      "approve(address,uint256)": {
        "details": "See {IERC721-approve}."
      },
      "approveAdmin(address)": {
        "details": "See {IAdminControl-approveAdmin}."
      },
      "balanceOf(address)": {
        "details": "See {IERC721-balanceOf}."
      },
      "getAdmins()": {
        "details": "See {IAdminControl-getAdmins}."
      },
      "getApproved(uint256)": {
        "details": "See {IERC721-getApproved}."
      },
      "isAdmin(address)": {
        "details": "See {IAdminControl-isAdmin}."
      },
      "isApprovedForAll(address,address)": {
        "details": "See {IERC721-isApprovedForAll}."
      },
      "name()": {
        "details": "See {IERC721Metadata-name}."
      },
      "owner()": {
        "details": "Returns the address of the current owner."
      },
      "ownerOf(uint256)": {
        "details": "See {IERC721-ownerOf}."
      },
      "renounceOwnership()": {
        "details": "Leaves the contract without owner. It will not be possible to call `onlyOwner` functions anymore. Can only be called by the current owner. NOTE: Renouncing ownership will leave the contract without an owner, thereby removing any functionality that is only available to the owner."
      },
      "revokeAdmin(address)": {
        "details": "See {IAdminControl-revokeAdmin}."
      },
      "safeTransferFrom(address,address,uint256)": {
        "details": "See {IERC721-safeTransferFrom}."
      },
      "safeTransferFrom(address,address,uint256,bytes)": {
        "details": "See {IERC721-safeTransferFrom}."
      },
      "setApprovalForAll(address,bool)": {
        "details": "See {IERC721-setApprovalForAll}."
      },
      "symbol()": {
        "details": "See {IERC721Metadata-symbol}."
      },
      "tokenURI(uint256)": {
        "details": "See {IERC721Metadata-tokenURI}."
      },
      "transferFrom(address,address,uint256)": {
        "details": "See {IERC721-transferFrom}."
      },
      "transferOwnership(address)": {
        "details": "Transfers ownership of the contract to a new account (`newOwner`). Can only be called by the current owner."
      }
    },
    "version": 1
  },
  "userdoc": {
    "kind": "user",
    "methods": {},
    "version": 1
  }
}