{
  "contractName": "adreamwithinadream1155",
  "abi": [
    {
      "inputs": [],
      "stateMutability": "nonpayable",
      "type": "constructor"
    },
    {
      "anonymous": false,
      "inputs": [
        {
          "indexed": true,
          "internalType": "address",
          "name": "account",
          "type": "address"
        },
        {
          "indexed": true,
          "internalType": "address",
          "name": "sender",
          "type": "address"
        }
      ],
      "name": "AdminApproved",
      "type": "event"
    },
    {
      "anonymous": false,
      "inputs": [
        {
          "indexed": true,
          "internalType": "address",
          "name": "account",
          "type": "address"
        },
        {
          "indexed": true,
          "internalType": "address",
          "name": "sender",
          "type": "address"
        }
      ],
      "name": "AdminRevoked",
      "type": "event"
    },
    {
      "anonymous": false,
      "inputs": [
        {
          "indexed": true,
          "internalType": "address",
          "name": "account",
          "type": "address"
        },
        {
          "indexed": true,
          "internalType": "address",
          "name": "operator",
          "type": "address"
        },
        {
          "indexed": false,
          "internalType": "bool",
          "name": "approved",
          "type": "bool"
        }
      ],
      "name": "ApprovalForAll",
      "type": "event"
    },
    {
      "anonymous": false,
      "inputs": [
        {
          "indexed": true,
          "internalType": "address",
          "name": "previousOwner",
          "type": "address"
        },
        {
          "indexed": true,
          "internalType": "address",
          "name": "newOwner",
          "type": "address"
        }
      ],
      "name": "OwnershipTransferred",
      "type": "event"
    },
    {
      "anonymous": false,
      "inputs": [
        {
          "indexed": true,
          "internalType": "address",
          "name": "operator",
          "type": "address"
        },
        {
          "indexed": true,
          "internalType": "address",
          "name": "from",
          "type": "address"
        },
        {
          "indexed": true,
          "internalType": "address",
          "name": "to",
          "type": "address"
        },
        {
          "indexed": false,
          "internalType": "uint256[]",
          "name": "ids",
          "type": "uint256[]"
        },
        {
          "indexed": false,
          "internalType": "uint256[]",
          "name": "values",
          "type": "uint256[]"
        }
      ],
      "name": "TransferBatch",
      "type": "event"
    },
    {
      "anonymous": false,
      "inputs": [
        {
          "indexed": true,
          "internalType": "address",
          "name": "operator",
          "type": "address"
        },
        {
          "indexed": true,
          "internalType": "address",
          "name": "from",
          "type": "address"
        },
        {
          "indexed": true,
          "internalType": "address",
          "name": "to",
          "type": "address"
        },
        {
          "indexed": false,
          "internalType": "uint256",
          "name": "id",
          "type": "uint256"
        },
        {
          "indexed": false,
          "internalType": "uint256",
          "name": "value",
          "type": "uint256"
        }
      ],
      "name": "TransferSingle",
      "type": "event"
    },
    {
      "anonymous": false,
      "inputs": [
        {
          "indexed": false,
          "internalType": "string",
          "name": "value",
          "type": "string"
        },
        {
          "indexed": true,
          "internalType": "uint256",
          "name": "id",
          "type": "uint256"
        }
      ],
      "name": "URI",
      "type": "event"
    },
    {
      "inputs": [
        {
          "internalType": "address",
          "name": "",
          "type": "address"
        }
      ],
      "name": "_tokensClaimed",
      "outputs": [
        {
          "internalType": "uint256",
          "name": "",
          "type": "uint256"
        }
      ],
      "stateMutability": "view",
      "type": "function"
    },
    {
      "inputs": [
        {
          "internalType": "address",
          "name": "",
          "type": "address"
        }
      ],
      "name": "_tokensWhitelisted",
      "outputs": [
        {
          "internalType": "uint256",
          "name": "",
          "type": "uint256"
        }
      ],
      "stateMutability": "view",
      "type": "function"
    },
    {
      "inputs": [
        {
          "internalType": "address",
          "name": "admin",
          "type": "address"
        }
      ],
      "name": "approveAdmin",
      "outputs": [],
      "stateMutability": "nonpayable",
      "type": "function"
    },
    {
      "inputs": [],
      "name": "ashBalance",
      "outputs": [
        {
          "internalType": "uint256",
          "name": "",
          "type": "uint256"
        }
      ],
      "stateMutability": "view",
      "type": "function"
    },
    {
      "inputs": [],
      "name": "ashContract",
      "outputs": [
        {
          "internalType": "address",
          "name": "",
          "type": "address"
        }
      ],
      "stateMutability": "view",
      "type": "function"
    },
    {
      "inputs": [],
      "name": "ashPrice",
      "outputs": [
        {
          "internalType": "uint256",
          "name": "",
          "type": "uint256"
        }
      ],
      "stateMutability": "view",
      "type": "function"
    },
    {
      "inputs": [
        {
          "internalType": "address",
          "name": "account",
          "type": "address"
        },
        {
          "internalType": "uint256",
          "name": "id",
          "type": "uint256"
        }
      ],
      "name": "balanceOf",
      "outputs": [
        {
          "internalType": "uint256",
          "name": "",
          "type": "uint256"
        }
      ],
      "stateMutability": "view",
      "type": "function"
    },
    {
      "inputs": [
        {
          "internalType": "address[]",
          "name": "accounts",
          "type": "address[]"
        },
        {
          "internalType": "uint256[]",
          "name": "ids",
          "type": "uint256[]"
        }
      ],
      "name": "balanceOfBatch",
      "outputs": [
        {
          "internalType": "uint256[]",
          "name": "",
          "type": "uint256[]"
        }
      ],
      "stateMutability": "view",
      "type": "function"
    },
    {
      "inputs": [],
      "name": "getAdmins",
      "outputs": [
        {
          "internalType": "address[]",
          "name": "admins",
          "type": "address[]"
        }
      ],
      "stateMutability": "view",
      "type": "function"
    },
    {
      "inputs": [
        {
          "internalType": "address",
          "name": "admin",
          "type": "address"
        }
      ],
      "name": "isAdmin",
      "outputs": [
        {
          "internalType": "bool",
          "name": "",
          "type": "bool"
        }
      ],
      "stateMutability": "view",
      "type": "function"
    },
    {
      "inputs": [
        {
          "internalType": "address",
          "name": "account",
          "type": "address"
        },
        {
          "internalType": "address",
          "name": "operator",
          "type": "address"
        }
      ],
      "name": "isApprovedForAll",
      "outputs": [
        {
          "internalType": "bool",
          "name": "",
          "type": "bool"
        }
      ],
      "stateMutability": "view",
      "type": "function"
    },
    {
      "inputs": [],
      "name": "owner",
      "outputs": [
        {
          "internalType": "address",
          "name": "",
          "type": "address"
        }
      ],
      "stateMutability": "view",
      "type": "function"
    },
    {
      "inputs": [],
      "name": "renounceOwnership",
      "outputs": [],
      "stateMutability": "nonpayable",
      "type": "function"
    },
    {
      "inputs": [
        {
          "internalType": "address",
          "name": "admin",
          "type": "address"
        }
      ],
      "name": "revokeAdmin",
      "outputs": [],
      "stateMutability": "nonpayable",
      "type": "function"
    },
    {
      "inputs": [
        {
          "internalType": "address",
          "name": "from",
          "type": "address"
        },
        {
          "internalType": "address",
          "name": "to",
          "type": "address"
        },
        {
          "internalType": "uint256[]",
          "name": "ids",
          "type": "uint256[]"
        },
        {
          "internalType": "uint256[]",
          "name": "amounts",
          "type": "uint256[]"
        },
        {
          "internalType": "bytes",
          "name": "data",
          "type": "bytes"
        }
      ],
      "name": "safeBatchTransferFrom",
      "outputs": [],
      "stateMutability": "nonpayable",
      "type": "function"
    },
    {
      "inputs": [
        {
          "internalType": "address",
          "name": "from",
          "type": "address"
        },
        {
          "internalType": "address",
          "name": "to",
          "type": "address"
        },
        {
          "internalType": "uint256",
          "name": "id",
          "type": "uint256"
        },
        {
          "internalType": "uint256",
          "name": "amount",
          "type": "uint256"
        },
        {
          "internalType": "bytes",
          "name": "data",
          "type": "bytes"
        }
      ],
      "name": "safeTransferFrom",
      "outputs": [],
      "stateMutability": "nonpayable",
      "type": "function"
    },
    {
      "inputs": [],
      "name": "seller",
      "outputs": [
        {
          "internalType": "address",
          "name": "",
          "type": "address"
        }
      ],
      "stateMutability": "view",
      "type": "function"
    },
    {
      "inputs": [
        {
          "internalType": "address",
          "name": "operator",
          "type": "address"
        },
        {
          "internalType": "bool",
          "name": "approved",
          "type": "bool"
        }
      ],
      "name": "setApprovalForAll",
      "outputs": [],
      "stateMutability": "nonpayable",
      "type": "function"
    },
    {
      "inputs": [
        {
          "internalType": "address",
          "name": "newOwner",
          "type": "address"
        }
      ],
      "name": "transferOwnership",
      "outputs": [],
      "stateMutability": "nonpayable",
      "type": "function"
    },
    {
      "inputs": [
        {
          "internalType": "bytes4",
          "name": "interfaceId",
          "type": "bytes4"
        }
      ],
      "name": "supportsInterface",
      "outputs": [
        {
          "internalType": "bool",
          "name": "",
          "type": "bool"
        }
      ],
      "stateMutability": "view",
      "type": "function"
    },
    {
      "inputs": [
        {
          "internalType": "address",
          "name": "account",
          "type": "address"
        },
        {
          "internalType": "uint256",
          "name": "tokenQuantity",
          "type": "uint256"
        }
      ],
      "name": "mint",
      "outputs": [],
      "stateMutability": "nonpayable",
      "type": "function"
    },
    {
      "inputs": [
        {
          "internalType": "address[]",
          "name": "_whitelistedAddresses",
          "type": "address[]"
        },
        {
          "internalType": "uint256[]",
          "name": "_amount",
          "type": "uint256[]"
        }
      ],
      "name": "loadWL",
      "outputs": [],
      "stateMutability": "nonpayable",
      "type": "function"
    },
    {
      "inputs": [
        {
          "internalType": "string[]",
          "name": "uris",
          "type": "string[]"
        }
      ],
      "name": "updateURIs",
      "outputs": [],
      "stateMutability": "nonpayable",
      "type": "function"
    },
    {
      "inputs": [],
      "name": "getURIs",
      "outputs": [
        {
          "internalType": "string[]",
          "name": "",
          "type": "string[]"
        }
      ],
      "stateMutability": "view",
      "type": "function"
    },
    {
      "inputs": [
        {
          "internalType": "uint256",
          "name": "tokenId",
          "type": "uint256"
        }
      ],
      "name": "uri",
      "outputs": [
        {
          "internalType": "string",
          "name": "",
          "type": "string"
        }
      ],
      "stateMutability": "view",
      "type": "function"
    },
    {
      "inputs": [
        {
          "internalType": "uint256",
          "name": "tokenId",
          "type": "uint256"
        },
        {
          "internalType": "uint256",
          "name": "quantity",
          "type": "uint256"
        }
      ],
      "name": "burn",
      "outputs": [],
      "stateMutability": "nonpayable",
      "type": "function"
    },
    {
      "inputs": [
        {
          "internalType": "address",
          "name": "_recipient",
          "type": "address"
        },
        {
          "internalType": "uint256",
          "name": "_amount",
          "type": "uint256"
        }
      ],
      "name": "setRoyalties",
      "outputs": [],
      "stateMutability": "nonpayable",
      "type": "function"
    },
    {
      "inputs": [
        {
          "internalType": "uint256",
          "name": "tokenId",
          "type": "uint256"
        },
        {
          "internalType": "uint256",
          "name": "salePrice",
          "type": "uint256"
        }
      ],
      "name": "royaltyInfo",
      "outputs": [
        {
          "internalType": "address",
          "name": "",
          "type": "address"
        },
        {
          "internalType": "uint256",
          "name": "",
          "type": "uint256"
        }
      ],
      "stateMutability": "view",
      "type": "function"
    }
  ],
  "bytecode": "0x6080604052600f600a5573f4e9c3d8718b221b3bda4cf905ddb3e9203f3cee600d60006101000a81548173ffffffffffffffffffffffffffffffffffffffff021916908373ffffffffffffffffffffffffffffffffffffffff1602179055507366806e42191e65968cd520d2615566e24368ef12600f60006101000a81548173ffffffffffffffffffffffffffffffffffffffff021916908373ffffffffffffffffffffffffffffffffffffffff160217905550348015620000c057600080fd5b5060405180602001604052806000815250620000f1620000e56200010960201b60201c565b6200011160201b60201c565b6200010281620001d560201b60201c565b5062000306565b600033905090565b60008060009054906101000a900473ffffffffffffffffffffffffffffffffffffffff169050816000806101000a81548173ffffffffffffffffffffffffffffffffffffffff021916908373ffffffffffffffffffffffffffffffffffffffff1602179055508173ffffffffffffffffffffffffffffffffffffffff168173ffffffffffffffffffffffffffffffffffffffff167f8be0079c531659141344cd1fd0a4f28419497f9722a3daafe3b4186f6b6457e060405160405180910390a35050565b8060039080519060200190620001ed929190620001f1565b5050565b828054620001ff90620002d0565b90600052602060002090601f0160209004810192826200022357600085556200026f565b82601f106200023e57805160ff19168380011785556200026f565b828001600101855582156200026f579182015b828111156200026e57825182559160200191906001019062000251565b5b5090506200027e919062000282565b5090565b5b808211156200029d57600081600090555060010162000283565b5090565b7f4e487b7100000000000000000000000000000000000000000000000000000000600052602260045260246000fd5b60006002820490506001821680620002e957607f821691505b602082108114156200030057620002ff620002a1565b5b50919050565b614d4880620003166000396000f3fe608060405234801561001057600080fd5b50600436106101c35760003560e01c806358245362116100f9578063a420ed3e11610097578063bc8485a511610071578063bc8485a5146104f1578063e985e9c514610521578063f242432a14610551578063f2fde38b1461056d576101c3565b8063a420ed3e1461049b578063b390c0ab146104b9578063b7951cf7146104d5576101c3565b80638c7ea24b116100d35780638c7ea24b146104275780638cf77604146104435780638da5cb5b14610461578063a22cb4651461047f576101c3565b806358245362146103e55780636d73e66914610401578063715018a61461041d576101c3565b80632d3456701161016657806331ae450b1161014057806331ae450b1461035d57806340548dcb1461037b57806340c10f19146103995780634e1273f4146103b5576101c3565b80632d345670146102f55780632eb2c2d6146103115780632f25662a1461032d576101c3565b80630e89341c116101a25780630e89341c1461024657806324d7806c1461027657806328c5440f146102a65780632a55205a146102c4576101c3565b8062fdd58e146101c857806301ffc9a7146101f857806308551a5314610228575b600080fd5b6101e260048036038101906101dd9190612fff565b610589565b6040516101ef919061304e565b60405180910390f35b610212600480360381019061020d91906130c1565b610653565b60405161021f9190613109565b60405180910390f35b6102306106ed565b60405161023d9190613133565b60405180910390f35b610260600480360381019061025b919061314e565b610713565b60405161026d9190613214565b60405180910390f35b610290600480360381019061028b9190613236565b6107d6565b60405161029d9190613109565b60405180910390f35b6102ae610830565b6040516102bb919061336f565b60405180910390f35b6102de60048036038101906102d99190613391565b610999565b6040516102ec9291906133d1565b60405180910390f35b61030f600480360381019061030a9190613236565b610a5e565b005b61032b600480360381019061032691906135f7565b610b66565b005b61034760048036038101906103429190613236565b610c07565b604051610354919061304e565b60405180910390f35b610365610c1f565b6040516103729190613784565b60405180910390f35b610383610d01565b604051610390919061304e565b60405180910390f35b6103b360048036038101906103ae9190612fff565b610d07565b005b6103cf60048036038101906103ca9190613869565b610fe1565b6040516103dc919061399f565b60405180910390f35b6103ff60048036038101906103fa9190613a72565b6110fa565b005b61041b60048036038101906104169190613236565b611236565b005b61042561133d565b005b610441600480360381019061043c9190612fff565b6113c5565b005b61044b6114a1565b604051610458919061304e565b60405180910390f35b6104696114a7565b6040516104769190613133565b60405180910390f35b61049960048036038101906104949190613b1f565b6114d0565b005b6104a36114e6565b6040516104b09190613133565b60405180910390f35b6104d360048036038101906104ce9190613391565b61150c565b005b6104ef60048036038101906104ea9190613bb5565b61151b565b005b61050b60048036038101906105069190613236565b611640565b604051610518919061304e565b60405180910390f35b61053b60048036038101906105369190613c02565b611658565b6040516105489190613109565b60405180910390f35b61056b60048036038101906105669190613c42565b6116ec565b005b61058760048036038101906105829190613236565b61178d565b005b60008073ffffffffffffffffffffffffffffffffffffffff168373ffffffffffffffffffffffffffffffffffffffff1614156105fa576040517f08c379a00000000000000000000000000000000000000000000000000000000081526004016105f190613d4b565b60405180910390fd5b6001600083815260200190815260200160002060008473ffffffffffffffffffffffffffffffffffffffff1673ffffffffffffffffffffffffffffffffffffffff16815260200190815260200160002054905092915050565b600061065e82611885565b8061066e575061066d826118ff565b5b806106d657507f2a55205a000000000000000000000000000000000000000000000000000000007bffffffffffffffffffffffffffffffffffffffffffffffffffffffff1916827bffffffffffffffffffffffffffffffffffffffffffffffffffffffff1916145b806106e657506106e582611885565b5b9050919050565b600f60009054906101000a900473ffffffffffffffffffffffffffffffffffffffff1681565b6060600960066000848152602001908152602001600020548154811061073c5761073b613d6b565b5b90600052602060002001805461075190613dc9565b80601f016020809104026020016040519081016040528092919081815260200182805461077d90613dc9565b80156107ca5780601f1061079f576101008083540402835291602001916107ca565b820191906000526020600020905b8154815290600101906020018083116107ad57829003601f168201915b50505050509050919050565b60008173ffffffffffffffffffffffffffffffffffffffff166107f76114a7565b73ffffffffffffffffffffffffffffffffffffffff16148061082957506108288260046119e190919063ffffffff16565b5b9050919050565b60603373ffffffffffffffffffffffffffffffffffffffff166108516114a7565b73ffffffffffffffffffffffffffffffffffffffff16148061088357506108823360046119e190919063ffffffff16565b5b6108c2576040517f08c379a00000000000000000000000000000000000000000000000000000000081526004016108b990613e6d565b60405180910390fd5b6009805480602002602001604051908101604052809291908181526020016000905b8282101561099057838290600052602060002001805461090390613dc9565b80601f016020809104026020016040519081016040528092919081815260200182805461092f90613dc9565b801561097c5780601f106109515761010080835404028352916020019161097c565b820191906000526020600020905b81548152906001019060200180831161095f57829003601f168201915b5050505050815260200190600101906108e4565b50505050905090565b6000806109a66010611a11565b8411158015610a045750600073ffffffffffffffffffffffffffffffffffffffff16600e60009054906101000a900473ffffffffffffffffffffffffffffffffffffffff1673ffffffffffffffffffffffffffffffffffffffff1614155b15610a4f57600e60009054906101000a900473ffffffffffffffffffffffffffffffffffffffff166064600c5485610a3c9190613ebc565b610a469190613f45565b91509150610a57565b600080915091505b9250929050565b610a66611a1f565b73ffffffffffffffffffffffffffffffffffffffff16610a846114a7565b73ffffffffffffffffffffffffffffffffffffffff1614610ada576040517f08c379a0000000000000000000000000000000000000000000000000000000008152600401610ad190613fc2565b60405180910390fd5b610aee8160046119e190919063ffffffff16565b15610b63573373ffffffffffffffffffffffffffffffffffffffff168173ffffffffffffffffffffffffffffffffffffffff167f7c0c3c84c67c85fcac635147348bfe374c24a1a93d0366d1cfe9d8853cbf89d560405160405180910390a3610b61816004611a2790919063ffffffff16565b505b50565b610b6e611a1f565b73ffffffffffffffffffffffffffffffffffffffff168573ffffffffffffffffffffffffffffffffffffffff161480610bb45750610bb385610bae611a1f565b611658565b5b610bf3576040517f08c379a0000000000000000000000000000000000000000000000000000000008152600401610bea90614054565b60405180910390fd5b610c008585858585611a57565b5050505050565b60076020528060005260406000206000915090505481565b6060610c2b6004611d6e565b67ffffffffffffffff811115610c4457610c436133ff565b5b604051908082528060200260200182016040528015610c725781602001602082028036833780820191505090505b50905060005b610c826004611d6e565b811015610cfd57610c9d816004611d8390919063ffffffff16565b828281518110610cb057610caf613d6b565b5b602002602001019073ffffffffffffffffffffffffffffffffffffffff16908173ffffffffffffffffffffffffffffffffffffffff16815250508080610cf590614074565b915050610c78565b5090565b600b5481565b6000600980549050118015610d1c5750600081115b610d5b576040517f08c379a0000000000000000000000000000000000000000000000000000000008152600401610d529061412f565b60405180910390fd5b600760008373ffffffffffffffffffffffffffffffffffffffff1673ffffffffffffffffffffffffffffffffffffffff1681526020019081526020016000205481600860008573ffffffffffffffffffffffffffffffffffffffff1673ffffffffffffffffffffffffffffffffffffffff16815260200190815260200160002054610de6919061414f565b111580610df85750610df7336107d6565b5b610e37576040517f08c379a0000000000000000000000000000000000000000000000000000000008152600401610e2e90614217565b60405180910390fd5b610e40336107d6565b610f1757600d60009054906101000a900473ffffffffffffffffffffffffffffffffffffffff1673ffffffffffffffffffffffffffffffffffffffff166323b872dd33600f60009054906101000a900473ffffffffffffffffffffffffffffffffffffffff1684600a54610eb49190613ebc565b6040518463ffffffff1660e01b8152600401610ed293929190614237565b6020604051808303816000875af1158015610ef1573d6000803e3d6000fd5b505050506040513d601f19601f82011682018060405250810190610f159190614283565b505b6000600190505b818111610fdc57610f2f6010611d9d565b6000610f3b6010611a11565b9050610f5884828560405180602001604052806000815250611db3565b600060066000838152602001908152602001600020819055506001600860008673ffffffffffffffffffffffffffffffffffffffff1673ffffffffffffffffffffffffffffffffffffffff1681526020019081526020016000206000828254610fc1919061414f565b92505081905550508080610fd490614074565b915050610f1e565b505050565b60608151835114611027576040517f08c379a000000000000000000000000000000000000000000000000000000000815260040161101e90614322565b60405180910390fd5b6000835167ffffffffffffffff811115611044576110436133ff565b5b6040519080825280602002602001820160405280156110725781602001602082028036833780820191505090505b50905060005b84518110156110ef576110bf85828151811061109757611096613d6b565b5b60200260200101518583815181106110b2576110b1613d6b565b5b6020026020010151610589565b8282815181106110d2576110d1613d6b565b5b602002602001018181525050806110e890614074565b9050611078565b508091505092915050565b3373ffffffffffffffffffffffffffffffffffffffff166111196114a7565b73ffffffffffffffffffffffffffffffffffffffff16148061114b575061114a3360046119e190919063ffffffff16565b5b61118a576040517f08c379a000000000000000000000000000000000000000000000000000000000815260040161118190613e6d565b60405180910390fd5b60005b8484905081101561122f578282828181106111ab576111aa613d6b565b5b90506020020135600760008787858181106111c9576111c8613d6b565b5b90506020020160208101906111de9190613236565b73ffffffffffffffffffffffffffffffffffffffff1673ffffffffffffffffffffffffffffffffffffffff16815260200190815260200160002081905550808061122790614074565b91505061118d565b5050505050565b61123e611a1f565b73ffffffffffffffffffffffffffffffffffffffff1661125c6114a7565b73ffffffffffffffffffffffffffffffffffffffff16146112b2576040517f08c379a00000000000000000000000000000000000000000000000000000000081526004016112a990613fc2565b60405180910390fd5b6112c68160046119e190919063ffffffff16565b61133a573373ffffffffffffffffffffffffffffffffffffffff168173ffffffffffffffffffffffffffffffffffffffff167f7e1a1a08d52e4ba0e21554733d66165fd5151f99460116223d9e3a608eec5cb160405160405180910390a3611338816004611f4a90919063ffffffff16565b505b50565b611345611a1f565b73ffffffffffffffffffffffffffffffffffffffff166113636114a7565b73ffffffffffffffffffffffffffffffffffffffff16146113b9576040517f08c379a00000000000000000000000000000000000000000000000000000000081526004016113b090613fc2565b60405180910390fd5b6113c36000611f7a565b565b3373ffffffffffffffffffffffffffffffffffffffff166113e46114a7565b73ffffffffffffffffffffffffffffffffffffffff16148061141657506114153360046119e190919063ffffffff16565b5b611455576040517f08c379a000000000000000000000000000000000000000000000000000000000815260040161144c90613e6d565b60405180910390fd5b81600e60006101000a81548173ffffffffffffffffffffffffffffffffffffffff021916908373ffffffffffffffffffffffffffffffffffffffff16021790555080600c819055505050565b600a5481565b60008060009054906101000a900473ffffffffffffffffffffffffffffffffffffffff16905090565b6114e26114db611a1f565b838361203e565b5050565b600d60009054906101000a900473ffffffffffffffffffffffffffffffffffffffff1681565b6115173383836121ab565b5050565b3373ffffffffffffffffffffffffffffffffffffffff1661153a6114a7565b73ffffffffffffffffffffffffffffffffffffffff16148061156c575061156b3360046119e190919063ffffffff16565b5b6115ab576040517f08c379a00000000000000000000000000000000000000000000000000000000081526004016115a290613e6d565b60405180910390fd5b600960006115b99190612e2f565b60005b8282905081101561163b5760098383838181106115dc576115db613d6b565b5b90506020028101906115ee9190614351565b90918060018154018082558091505060019003906000526020600020016000909192909192909192909192509190611627929190612e50565b50808061163390614074565b9150506115bc565b505050565b60086020528060005260406000206000915090505481565b6000600260008473ffffffffffffffffffffffffffffffffffffffff1673ffffffffffffffffffffffffffffffffffffffff16815260200190815260200160002060008373ffffffffffffffffffffffffffffffffffffffff1673ffffffffffffffffffffffffffffffffffffffff16815260200190815260200160002060009054906101000a900460ff16905092915050565b6116f4611a1f565b73ffffffffffffffffffffffffffffffffffffffff168573ffffffffffffffffffffffffffffffffffffffff16148061173a575061173985611734611a1f565b611658565b5b611779576040517f08c379a000000000000000000000000000000000000000000000000000000000815260040161177090614426565b60405180910390fd5b61178685858585856123ca565b5050505050565b611795611a1f565b73ffffffffffffffffffffffffffffffffffffffff166117b36114a7565b73ffffffffffffffffffffffffffffffffffffffff1614611809576040517f08c379a000000000000000000000000000000000000000000000000000000000815260040161180090613fc2565b60405180910390fd5b600073ffffffffffffffffffffffffffffffffffffffff168173ffffffffffffffffffffffffffffffffffffffff161415611879576040517f08c379a0000000000000000000000000000000000000000000000000000000008152600401611870906144b8565b60405180910390fd5b61188281611f7a565b50565b60007f553e757e000000000000000000000000000000000000000000000000000000007bffffffffffffffffffffffffffffffffffffffffffffffffffffffff1916827bffffffffffffffffffffffffffffffffffffffffffffffffffffffff191614806118f857506118f7826118ff565b5b9050919050565b60007fd9b67a26000000000000000000000000000000000000000000000000000000007bffffffffffffffffffffffffffffffffffffffffffffffffffffffff1916827bffffffffffffffffffffffffffffffffffffffffffffffffffffffff191614806119ca57507f0e89341c000000000000000000000000000000000000000000000000000000007bffffffffffffffffffffffffffffffffffffffffffffffffffffffff1916827bffffffffffffffffffffffffffffffffffffffffffffffffffffffff1916145b806119da57506119d98261264f565b5b9050919050565b6000611a09836000018373ffffffffffffffffffffffffffffffffffffffff1660001b6126b9565b905092915050565b600081600001549050919050565b600033905090565b6000611a4f836000018373ffffffffffffffffffffffffffffffffffffffff1660001b6126dc565b905092915050565b8151835114611a9b576040517f08c379a0000000000000000000000000000000000000000000000000000000008152600401611a929061454a565b60405180910390fd5b600073ffffffffffffffffffffffffffffffffffffffff168473ffffffffffffffffffffffffffffffffffffffff161415611b0b576040517f08c379a0000000000000000000000000000000000000000000000000000000008152600401611b02906145dc565b60405180910390fd5b6000611b15611a1f565b9050611b258187878787876127f0565b60005b8451811015611cd9576000858281518110611b4657611b45613d6b565b5b602002602001015190506000858381518110611b6557611b64613d6b565b5b6020026020010151905060006001600084815260200190815260200160002060008b73ffffffffffffffffffffffffffffffffffffffff1673ffffffffffffffffffffffffffffffffffffffff16815260200190815260200160002054905081811015611c07576040517f08c379a0000000000000000000000000000000000000000000000000000000008152600401611bfe9061466e565b60405180910390fd5b8181036001600085815260200190815260200160002060008c73ffffffffffffffffffffffffffffffffffffffff1673ffffffffffffffffffffffffffffffffffffffff16815260200190815260200160002081905550816001600085815260200190815260200160002060008b73ffffffffffffffffffffffffffffffffffffffff1673ffffffffffffffffffffffffffffffffffffffff1681526020019081526020016000206000828254611cbe919061414f565b9250508190555050505080611cd290614074565b9050611b28565b508473ffffffffffffffffffffffffffffffffffffffff168673ffffffffffffffffffffffffffffffffffffffff168273ffffffffffffffffffffffffffffffffffffffff167f4a39dc06d4c0dbc64b70af90fd698a233a518aa5d07e595d983b8c0526c8f7fb8787604051611d5092919061468e565b60405180910390a4611d66818787878787612946565b505050505050565b6000611d7c82600001612b1e565b9050919050565b6000611d928360000183612b2f565b60001c905092915050565b6001816000016000828254019250508190555050565b600073ffffffffffffffffffffffffffffffffffffffff168473ffffffffffffffffffffffffffffffffffffffff161415611e23576040517f08c379a0000000000000000000000000000000000000000000000000000000008152600401611e1a90614737565b60405180910390fd5b6000611e2d611a1f565b9050611e4e81600087611e3f88612b5a565b611e4888612b5a565b876127f0565b826001600086815260200190815260200160002060008773ffffffffffffffffffffffffffffffffffffffff1673ffffffffffffffffffffffffffffffffffffffff1681526020019081526020016000206000828254611eae919061414f565b925050819055508473ffffffffffffffffffffffffffffffffffffffff16600073ffffffffffffffffffffffffffffffffffffffff168273ffffffffffffffffffffffffffffffffffffffff167fc3d58168c5ae7397731d063d5bbf3d657854427343f4c083240f7aacaa2d0f628787604051611f2c929190614757565b60405180910390a4611f4381600087878787612bd4565b5050505050565b6000611f72836000018373ffffffffffffffffffffffffffffffffffffffff1660001b612dac565b905092915050565b60008060009054906101000a900473ffffffffffffffffffffffffffffffffffffffff169050816000806101000a81548173ffffffffffffffffffffffffffffffffffffffff021916908373ffffffffffffffffffffffffffffffffffffffff1602179055508173ffffffffffffffffffffffffffffffffffffffff168173ffffffffffffffffffffffffffffffffffffffff167f8be0079c531659141344cd1fd0a4f28419497f9722a3daafe3b4186f6b6457e060405160405180910390a35050565b8173ffffffffffffffffffffffffffffffffffffffff168373ffffffffffffffffffffffffffffffffffffffff1614156120ad576040517f08c379a00000000000000000000000000000000000000000000000000000000081526004016120a4906147f2565b60405180910390fd5b80600260008573ffffffffffffffffffffffffffffffffffffffff1673ffffffffffffffffffffffffffffffffffffffff16815260200190815260200160002060008473ffffffffffffffffffffffffffffffffffffffff1673ffffffffffffffffffffffffffffffffffffffff16815260200190815260200160002060006101000a81548160ff0219169083151502179055508173ffffffffffffffffffffffffffffffffffffffff168373ffffffffffffffffffffffffffffffffffffffff167f17307eab39ab6107e8899845ad3d59bd9653f200f220920489ca2b5937696c318360405161219e9190613109565b60405180910390a3505050565b600073ffffffffffffffffffffffffffffffffffffffff168373ffffffffffffffffffffffffffffffffffffffff16141561221b576040517f08c379a000000000000000000000000000000000000000000000000000000000815260040161221290614884565b60405180910390fd5b6000612225611a1f565b90506122558185600061223787612b5a565b61224087612b5a565b604051806020016040528060008152506127f0565b60006001600085815260200190815260200160002060008673ffffffffffffffffffffffffffffffffffffffff1673ffffffffffffffffffffffffffffffffffffffff168152602001908152602001600020549050828110156122ed576040517f08c379a00000000000000000000000000000000000000000000000000000000081526004016122e490614916565b60405180910390fd5b8281036001600086815260200190815260200160002060008773ffffffffffffffffffffffffffffffffffffffff1673ffffffffffffffffffffffffffffffffffffffff16815260200190815260200160002081905550600073ffffffffffffffffffffffffffffffffffffffff168573ffffffffffffffffffffffffffffffffffffffff168373ffffffffffffffffffffffffffffffffffffffff167fc3d58168c5ae7397731d063d5bbf3d657854427343f4c083240f7aacaa2d0f6287876040516123bb929190614757565b60405180910390a45050505050565b600073ffffffffffffffffffffffffffffffffffffffff168473ffffffffffffffffffffffffffffffffffffffff16141561243a576040517f08c379a0000000000000000000000000000000000000000000000000000000008152600401612431906145dc565b60405180910390fd5b6000612444611a1f565b905061246481878761245588612b5a565b61245e88612b5a565b876127f0565b60006001600086815260200190815260200160002060008873ffffffffffffffffffffffffffffffffffffffff1673ffffffffffffffffffffffffffffffffffffffff168152602001908152602001600020549050838110156124fc576040517f08c379a00000000000000000000000000000000000000000000000000000000081526004016124f39061466e565b60405180910390fd5b8381036001600087815260200190815260200160002060008973ffffffffffffffffffffffffffffffffffffffff1673ffffffffffffffffffffffffffffffffffffffff16815260200190815260200160002081905550836001600087815260200190815260200160002060008873ffffffffffffffffffffffffffffffffffffffff1673ffffffffffffffffffffffffffffffffffffffff16815260200190815260200160002060008282546125b3919061414f565b925050819055508573ffffffffffffffffffffffffffffffffffffffff168773ffffffffffffffffffffffffffffffffffffffff168373ffffffffffffffffffffffffffffffffffffffff167fc3d58168c5ae7397731d063d5bbf3d657854427343f4c083240f7aacaa2d0f628888604051612630929190614757565b60405180910390a4612646828888888888612bd4565b50505050505050565b60007f01ffc9a7000000000000000000000000000000000000000000000000000000007bffffffffffffffffffffffffffffffffffffffffffffffffffffffff1916827bffffffffffffffffffffffffffffffffffffffffffffffffffffffff1916149050919050565b600080836001016000848152602001908152602001600020541415905092915050565b600080836001016000848152602001908152602001600020549050600081146127e457600060018261270e9190614936565b90506000600186600001805490506127269190614936565b905081811461279557600086600001828154811061274757612746613d6b565b5b906000526020600020015490508087600001848154811061276b5761276a613d6b565b5b90600052602060002001819055508387600101600083815260200190815260200160002081905550505b856000018054806127a9576127a861496a565b5b6001900381819060005260206000200160009055905585600101600086815260200190815260200160002060009055600193505050506127ea565b60009150505b92915050565b600073ffffffffffffffffffffffffffffffffffffffff168473ffffffffffffffffffffffffffffffffffffffff161415801561285a5750600073ffffffffffffffffffffffffffffffffffffffff168573ffffffffffffffffffffffffffffffffffffffff1614155b1561293e5760005b83518160ff16101561293c5760016009805490506128809190614936565b60066000868460ff168151811061289a57612899613d6b565b5b6020026020010151815260200190815260200160002054101561292957600160066000868460ff16815181106128d3576128d2613d6b565b5b60200260200101518152602001908152602001600020546128f4919061414f565b60066000868460ff168151811061290e5761290d613d6b565b5b60200260200101518152602001908152602001600020819055505b8080612934906149a6565b915050612862565b505b505050505050565b6129658473ffffffffffffffffffffffffffffffffffffffff16612e1c565b15612b16578373ffffffffffffffffffffffffffffffffffffffff1663bc197c8187878686866040518663ffffffff1660e01b81526004016129ab959493929190614a25565b6020604051808303816000875af19250505080156129e757506040513d601f19601f820116820180604052508101906129e49190614aa2565b60015b612a8d576129f3614adc565b806308c379a01415612a505750612a08614afe565b80612a135750612a52565b806040517f08c379a0000000000000000000000000000000000000000000000000000000008152600401612a479190613214565b60405180910390fd5b505b6040517f08c379a0000000000000000000000000000000000000000000000000000000008152600401612a8490614c06565b60405180910390fd5b63bc197c8160e01b7bffffffffffffffffffffffffffffffffffffffffffffffffffffffff1916817bffffffffffffffffffffffffffffffffffffffffffffffffffffffff191614612b14576040517f08c379a0000000000000000000000000000000000000000000000000000000008152600401612b0b90614c98565b60405180910390fd5b505b505050505050565b600081600001805490509050919050565b6000826000018281548110612b4757612b46613d6b565b5b9060005260206000200154905092915050565b60606000600167ffffffffffffffff811115612b7957612b786133ff565b5b604051908082528060200260200182016040528015612ba75781602001602082028036833780820191505090505b5090508281600081518110612bbf57612bbe613d6b565b5b60200260200101818152505080915050919050565b612bf38473ffffffffffffffffffffffffffffffffffffffff16612e1c565b15612da4578373ffffffffffffffffffffffffffffffffffffffff1663f23a6e6187878686866040518663ffffffff1660e01b8152600401612c39959493929190614cb8565b6020604051808303816000875af1925050508015612c7557506040513d601f19601f82011682018060405250810190612c729190614aa2565b60015b612d1b57612c81614adc565b806308c379a01415612cde5750612c96614afe565b80612ca15750612ce0565b806040517f08c379a0000000000000000000000000000000000000000000000000000000008152600401612cd59190613214565b60405180910390fd5b505b6040517f08c379a0000000000000000000000000000000000000000000000000000000008152600401612d1290614c06565b60405180910390fd5b63f23a6e6160e01b7bffffffffffffffffffffffffffffffffffffffffffffffffffffffff1916817bffffffffffffffffffffffffffffffffffffffffffffffffffffffff191614612da2576040517f08c379a0000000000000000000000000000000000000000000000000000000008152600401612d9990614c98565b60405180910390fd5b505b505050505050565b6000612db883836126b9565b612e11578260000182908060018154018082558091505060019003906000526020600020016000909190919091505582600001805490508360010160008481526020019081526020016000208190555060019050612e16565b600090505b92915050565b600080823b905060008111915050919050565b5080546000825590600052602060002090810190612e4d9190612ed6565b50565b828054612e5c90613dc9565b90600052602060002090601f016020900481019282612e7e5760008555612ec5565b82601f10612e9757803560ff1916838001178555612ec5565b82800160010185558215612ec5579182015b82811115612ec4578235825591602001919060010190612ea9565b5b509050612ed29190612efa565b5090565b5b80821115612ef65760008181612eed9190612f17565b50600101612ed7565b5090565b5b80821115612f13576000816000905550600101612efb565b5090565b508054612f2390613dc9565b6000825580601f10612f355750612f54565b601f016020900490600052602060002090810190612f539190612efa565b5b50565b6000604051905090565b600080fd5b600080fd5b600073ffffffffffffffffffffffffffffffffffffffff82169050919050565b6000612f9682612f6b565b9050919050565b612fa681612f8b565b8114612fb157600080fd5b50565b600081359050612fc381612f9d565b92915050565b6000819050919050565b612fdc81612fc9565b8114612fe757600080fd5b50565b600081359050612ff981612fd3565b92915050565b6000806040838503121561301657613015612f61565b5b600061302485828601612fb4565b925050602061303585828601612fea565b9150509250929050565b61304881612fc9565b82525050565b6000602082019050613063600083018461303f565b92915050565b60007fffffffff0000000000000000000000000000000000000000000000000000000082169050919050565b61309e81613069565b81146130a957600080fd5b50565b6000813590506130bb81613095565b92915050565b6000602082840312156130d7576130d6612f61565b5b60006130e5848285016130ac565b91505092915050565b60008115159050919050565b613103816130ee565b82525050565b600060208201905061311e60008301846130fa565b92915050565b61312d81612f8b565b82525050565b60006020820190506131486000830184613124565b92915050565b60006020828403121561316457613163612f61565b5b600061317284828501612fea565b91505092915050565b600081519050919050565b600082825260208201905092915050565b60005b838110156131b557808201518184015260208101905061319a565b838111156131c4576000848401525b50505050565b6000601f19601f8301169050919050565b60006131e68261317b565b6131f08185613186565b9350613200818560208601613197565b613209816131ca565b840191505092915050565b6000602082019050818103600083015261322e81846131db565b905092915050565b60006020828403121561324c5761324b612f61565b5b600061325a84828501612fb4565b91505092915050565b600081519050919050565b600082825260208201905092915050565b6000819050602082019050919050565b600082825260208201905092915050565b60006132ab8261317b565b6132b5818561328f565b93506132c5818560208601613197565b6132ce816131ca565b840191505092915050565b60006132e583836132a0565b905092915050565b6000602082019050919050565b600061330582613263565b61330f818561326e565b9350836020820285016133218561327f565b8060005b8581101561335d578484038952815161333e85826132d9565b9450613349836132ed565b925060208a01995050600181019050613325565b50829750879550505050505092915050565b6000602082019050818103600083015261338981846132fa565b905092915050565b600080604083850312156133a8576133a7612f61565b5b60006133b685828601612fea565b92505060206133c785828601612fea565b9150509250929050565b60006040820190506133e66000830185613124565b6133f3602083018461303f565b9392505050565b600080fd5b7f4e487b7100000000000000000000000000000000000000000000000000000000600052604160045260246000fd5b613437826131ca565b810181811067ffffffffffffffff82111715613456576134556133ff565b5b80604052505050565b6000613469612f57565b9050613475828261342e565b919050565b600067ffffffffffffffff821115613495576134946133ff565b5b602082029050602081019050919050565b600080fd5b60006134be6134b98461347a565b61345f565b905080838252602082019050602084028301858111156134e1576134e06134a6565b5b835b8181101561350a57806134f68882612fea565b8452602084019350506020810190506134e3565b5050509392505050565b600082601f830112613529576135286133fa565b5b81356135398482602086016134ab565b91505092915050565b600080fd5b600067ffffffffffffffff821115613562576135616133ff565b5b61356b826131ca565b9050602081019050919050565b82818337600083830152505050565b600061359a61359584613547565b61345f565b9050828152602081018484840111156135b6576135b5613542565b5b6135c1848285613578565b509392505050565b600082601f8301126135de576135dd6133fa565b5b81356135ee848260208601613587565b91505092915050565b600080600080600060a0868803121561361357613612612f61565b5b600061362188828901612fb4565b955050602061363288828901612fb4565b945050604086013567ffffffffffffffff81111561365357613652612f66565b5b61365f88828901613514565b935050606086013567ffffffffffffffff8111156136805761367f612f66565b5b61368c88828901613514565b925050608086013567ffffffffffffffff8111156136ad576136ac612f66565b5b6136b9888289016135c9565b9150509295509295909350565b600081519050919050565b600082825260208201905092915050565b6000819050602082019050919050565b6136fb81612f8b565b82525050565b600061370d83836136f2565b60208301905092915050565b6000602082019050919050565b6000613731826136c6565b61373b81856136d1565b9350613746836136e2565b8060005b8381101561377757815161375e8882613701565b975061376983613719565b92505060018101905061374a565b5085935050505092915050565b6000602082019050818103600083015261379e8184613726565b905092915050565b600067ffffffffffffffff8211156137c1576137c06133ff565b5b602082029050602081019050919050565b60006137e56137e0846137a6565b61345f565b90508083825260208201905060208402830185811115613808576138076134a6565b5b835b81811015613831578061381d8882612fb4565b84526020840193505060208101905061380a565b5050509392505050565b600082601f8301126138505761384f6133fa565b5b81356138608482602086016137d2565b91505092915050565b600080604083850312156138805761387f612f61565b5b600083013567ffffffffffffffff81111561389e5761389d612f66565b5b6138aa8582860161383b565b925050602083013567ffffffffffffffff8111156138cb576138ca612f66565b5b6138d785828601613514565b9150509250929050565b600081519050919050565b600082825260208201905092915050565b6000819050602082019050919050565b61391681612fc9565b82525050565b6000613928838361390d565b60208301905092915050565b6000602082019050919050565b600061394c826138e1565b61395681856138ec565b9350613961836138fd565b8060005b83811015613992578151613979888261391c565b975061398483613934565b925050600181019050613965565b5085935050505092915050565b600060208201905081810360008301526139b98184613941565b905092915050565b600080fd5b60008083601f8401126139dc576139db6133fa565b5b8235905067ffffffffffffffff8111156139f9576139f86139c1565b5b602083019150836020820283011115613a1557613a146134a6565b5b9250929050565b60008083601f840112613a3257613a316133fa565b5b8235905067ffffffffffffffff811115613a4f57613a4e6139c1565b5b602083019150836020820283011115613a6b57613a6a6134a6565b5b9250929050565b60008060008060408587031215613a8c57613a8b612f61565b5b600085013567ffffffffffffffff811115613aaa57613aa9612f66565b5b613ab6878288016139c6565b9450945050602085013567ffffffffffffffff811115613ad957613ad8612f66565b5b613ae587828801613a1c565b925092505092959194509250565b613afc816130ee565b8114613b0757600080fd5b50565b600081359050613b1981613af3565b92915050565b60008060408385031215613b3657613b35612f61565b5b6000613b4485828601612fb4565b9250506020613b5585828601613b0a565b9150509250929050565b60008083601f840112613b7557613b746133fa565b5b8235905067ffffffffffffffff811115613b9257613b916139c1565b5b602083019150836020820283011115613bae57613bad6134a6565b5b9250929050565b60008060208385031215613bcc57613bcb612f61565b5b600083013567ffffffffffffffff811115613bea57613be9612f66565b5b613bf685828601613b5f565b92509250509250929050565b60008060408385031215613c1957613c18612f61565b5b6000613c2785828601612fb4565b9250506020613c3885828601612fb4565b9150509250929050565b600080600080600060a08688031215613c5e57613c5d612f61565b5b6000613c6c88828901612fb4565b9550506020613c7d88828901612fb4565b9450506040613c8e88828901612fea565b9350506060613c9f88828901612fea565b925050608086013567ffffffffffffffff811115613cc057613cbf612f66565b5b613ccc888289016135c9565b9150509295509295909350565b7f455243313135353a2062616c616e636520717565727920666f7220746865207a60008201527f65726f2061646472657373000000000000000000000000000000000000000000602082015250565b6000613d35602b83613186565b9150613d4082613cd9565b604082019050919050565b60006020820190508181036000830152613d6481613d28565b9050919050565b7f4e487b7100000000000000000000000000000000000000000000000000000000600052603260045260246000fd5b7f4e487b7100000000000000000000000000000000000000000000000000000000600052602260045260246000fd5b60006002820490506001821680613de157607f821691505b60208210811415613df557613df4613d9a565b5b50919050565b7f41646d696e436f6e74726f6c3a204d757374206265206f776e6572206f72206160008201527f646d696e00000000000000000000000000000000000000000000000000000000602082015250565b6000613e57602483613186565b9150613e6282613dfb565b604082019050919050565b60006020820190508181036000830152613e8681613e4a565b9050919050565b7f4e487b7100000000000000000000000000000000000000000000000000000000600052601160045260246000fd5b6000613ec782612fc9565b9150613ed283612fc9565b9250817fffffffffffffffffffffffffffffffffffffffffffffffffffffffffffffffff0483118215151615613f0b57613f0a613e8d565b5b828202905092915050565b7f4e487b7100000000000000000000000000000000000000000000000000000000600052601260045260246000fd5b6000613f5082612fc9565b9150613f5b83612fc9565b925082613f6b57613f6a613f16565b5b828204905092915050565b7f4f776e61626c653a2063616c6c6572206973206e6f7420746865206f776e6572600082015250565b6000613fac602083613186565b9150613fb782613f76565b602082019050919050565b60006020820190508181036000830152613fdb81613f9f565b9050919050565b7f455243313135353a207472616e736665722063616c6c6572206973206e6f742060008201527f6f776e6572206e6f7220617070726f7665640000000000000000000000000000602082015250565b600061403e603283613186565b915061404982613fe2565b604082019050919050565b6000602082019050818103600083015261406d81614031565b9050919050565b600061407f82612fc9565b91507fffffffffffffffffffffffffffffffffffffffffffffffffffffffffffffffff8214156140b2576140b1613e8d565b5b600182019050919050565b7f416464206120555249206265666f7265206d696e74696e6720616e64206d696e60008201527f74206120706f736974697665206e756d626572206f6620746f6b656e73000000602082015250565b6000614119603d83613186565b9150614124826140bd565b604082019050919050565b600060208201905081810360008301526141488161410c565b9050919050565b600061415a82612fc9565b915061416583612fc9565b9250827fffffffffffffffffffffffffffffffffffffffffffffffffffffffffffffffff0382111561419a57614199613e8d565b5b828201905092915050565b7f596f7520617265206e6f742077686974656c697374656420666f72207468617460008201527f206d616e7920746f6b656e732100000000000000000000000000000000000000602082015250565b6000614201602d83613186565b915061420c826141a5565b604082019050919050565b60006020820190508181036000830152614230816141f4565b9050919050565b600060608201905061424c6000830186613124565b6142596020830185613124565b614266604083018461303f565b949350505050565b60008151905061427d81613af3565b92915050565b60006020828403121561429957614298612f61565b5b60006142a78482850161426e565b91505092915050565b7f455243313135353a206163636f756e747320616e6420696473206c656e67746860008201527f206d69736d617463680000000000000000000000000000000000000000000000602082015250565b600061430c602983613186565b9150614317826142b0565b604082019050919050565b6000602082019050818103600083015261433b816142ff565b9050919050565b600080fd5b600080fd5b600080fd5b6000808335600160200384360303811261436e5761436d614342565b5b80840192508235915067ffffffffffffffff8211156143905761438f614347565b5b6020830192506001820236038313156143ac576143ab61434c565b5b509250929050565b7f455243313135353a2063616c6c6572206973206e6f74206f776e6572206e6f7260008201527f20617070726f7665640000000000000000000000000000000000000000000000602082015250565b6000614410602983613186565b915061441b826143b4565b604082019050919050565b6000602082019050818103600083015261443f81614403565b9050919050565b7f4f776e61626c653a206e6577206f776e657220697320746865207a65726f206160008201527f6464726573730000000000000000000000000000000000000000000000000000602082015250565b60006144a2602683613186565b91506144ad82614446565b604082019050919050565b600060208201905081810360008301526144d181614495565b9050919050565b7f455243313135353a2069647320616e6420616d6f756e7473206c656e6774682060008201527f6d69736d61746368000000000000000000000000000000000000000000000000602082015250565b6000614534602883613186565b915061453f826144d8565b604082019050919050565b6000602082019050818103600083015261456381614527565b9050919050565b7f455243313135353a207472616e7366657220746f20746865207a65726f20616460008201527f6472657373000000000000000000000000000000000000000000000000000000602082015250565b60006145c6602583613186565b91506145d18261456a565b604082019050919050565b600060208201905081810360008301526145f5816145b9565b9050919050565b7f455243313135353a20696e73756666696369656e742062616c616e636520666f60008201527f72207472616e7366657200000000000000000000000000000000000000000000602082015250565b6000614658602a83613186565b9150614663826145fc565b604082019050919050565b600060208201905081810360008301526146878161464b565b9050919050565b600060408201905081810360008301526146a88185613941565b905081810360208301526146bc8184613941565b90509392505050565b7f455243313135353a206d696e7420746f20746865207a65726f2061646472657360008201527f7300000000000000000000000000000000000000000000000000000000000000602082015250565b6000614721602183613186565b915061472c826146c5565b604082019050919050565b6000602082019050818103600083015261475081614714565b9050919050565b600060408201905061476c600083018561303f565b614779602083018461303f565b9392505050565b7f455243313135353a2073657474696e6720617070726f76616c2073746174757360008201527f20666f722073656c660000000000000000000000000000000000000000000000602082015250565b60006147dc602983613186565b91506147e782614780565b604082019050919050565b6000602082019050818103600083015261480b816147cf565b9050919050565b7f455243313135353a206275726e2066726f6d20746865207a65726f206164647260008201527f6573730000000000000000000000000000000000000000000000000000000000602082015250565b600061486e602383613186565b915061487982614812565b604082019050919050565b6000602082019050818103600083015261489d81614861565b9050919050565b7f455243313135353a206275726e20616d6f756e7420657863656564732062616c60008201527f616e636500000000000000000000000000000000000000000000000000000000602082015250565b6000614900602483613186565b915061490b826148a4565b604082019050919050565b6000602082019050818103600083015261492f816148f3565b9050919050565b600061494182612fc9565b915061494c83612fc9565b92508282101561495f5761495e613e8d565b5b828203905092915050565b7f4e487b7100000000000000000000000000000000000000000000000000000000600052603160045260246000fd5b600060ff82169050919050565b60006149b182614999565b915060ff8214156149c5576149c4613e8d565b5b600182019050919050565b600081519050919050565b600082825260208201905092915050565b60006149f7826149d0565b614a0181856149db565b9350614a11818560208601613197565b614a1a816131ca565b840191505092915050565b600060a082019050614a3a6000830188613124565b614a476020830187613124565b8181036040830152614a598186613941565b90508181036060830152614a6d8185613941565b90508181036080830152614a8181846149ec565b90509695505050505050565b600081519050614a9c81613095565b92915050565b600060208284031215614ab857614ab7612f61565b5b6000614ac684828501614a8d565b91505092915050565b60008160e01c9050919050565b600060033d1115614afb5760046000803e614af8600051614acf565b90505b90565b600060443d1015614b0e57614b91565b614b16612f57565b60043d036004823e80513d602482011167ffffffffffffffff82111715614b3e575050614b91565b808201805167ffffffffffffffff811115614b5c5750505050614b91565b80602083010160043d038501811115614b79575050505050614b91565b614b888260200185018661342e565b82955050505050505b90565b7f455243313135353a207472616e7366657220746f206e6f6e204552433131353560008201527f526563656976657220696d706c656d656e746572000000000000000000000000602082015250565b6000614bf0603483613186565b9150614bfb82614b94565b604082019050919050565b60006020820190508181036000830152614c1f81614be3565b9050919050565b7f455243313135353a204552433131353552656365697665722072656a6563746560008201527f6420746f6b656e73000000000000000000000000000000000000000000000000602082015250565b6000614c82602883613186565b9150614c8d82614c26565b604082019050919050565b60006020820190508181036000830152614cb181614c75565b9050919050565b600060a082019050614ccd6000830188613124565b614cda6020830187613124565b614ce7604083018661303f565b614cf4606083018561303f565b8181036080830152614d0681846149ec565b9050969550505050505056fea26469706673582212202747c3651cd0e66f9f40563280c20debd0e4e7133a4ddcc9b3b763ddba99bb0464736f6c634300080b0033",
  "immutableReferences": {},
  "source": "// SPDX-License-Identifier: MIT\npragma solidity >= 0.8.11;\n\nimport \"@openzeppelin/contracts/token/ERC1155/ERC1155.sol\";\nimport \"@openzeppelin/contracts/utils/Counters.sol\";\nimport \"@openzeppelin/contracts/token//ERC20/IERC20.sol\";\nimport \"@manifoldxyz/royalty-registry-solidity/contracts/specs/IEIP2981.sol\";\nimport \"@manifoldxyz/libraries-solidity/contracts/access/AdminControl.sol\";\n\ncontract adreamwithinadream1155 is IEIP2981, ERC1155, AdminControl {\n    \n    using Counters for Counters.Counter;\n    mapping (uint256 => uint256) _urisByToken;\n    mapping (address => uint256) public _tokensWhitelisted;\n    mapping (address => uint256) public _tokensClaimed;\n\n\n    string [] _uris;\n    uint256 public ashPrice = 15;\n    uint256 public ashBalance;\n    uint256 _royalties_amount; \n    address public ashContract = 0xF4E9C3d8718b221b3bda4Cf905dDb3E9203f3CeE;\n    address _royalties_recipient;\n    address public seller = 0x66806e42191E65968Cd520D2615566E24368Ef12;\n    // Prod\n    // uint256 public ashPrice = 15000000000000000000; // 15 ASH\n    // address public ashContract = 0x64D91f12Ece7362F91A6f8E7940Cd55F05060b92;\n    Counters.Counter private _nextTokenId;\n\n    constructor () ERC1155(\"\") {\n    }\n\n    function supportsInterface(bytes4 interfaceId)\n        public\n        view\n        virtual\n        override(ERC1155, AdminControl)\n        returns (bool)  \n    {\n        return\n        AdminControl.supportsInterface(interfaceId) ||\n        ERC1155.supportsInterface(interfaceId) ||\n        interfaceId == type(IEIP2981).interfaceId ||\n        super.supportsInterface(interfaceId);\n    }\n\n    function mint(\n        address account,\n        uint256 tokenQuantity\n    ) external{\n        require(_uris.length > 0 && tokenQuantity >0, \"Add a URI before minting and mint a positive number of tokens\");\n        require( _tokensClaimed[account] + tokenQuantity <= _tokensWhitelisted[account] || isAdmin(msg.sender), \"You are not whitelisted for that many tokens!\");\n        if(!isAdmin(msg.sender)){\n            IERC20(ashContract).transferFrom(msg.sender, seller, ashPrice * tokenQuantity);\n        }\n        for(uint256 i = 1; i <= tokenQuantity; i++){\n            _nextTokenId.increment();\n            uint256 tokenId = _nextTokenId.current();\n            _mint(account, tokenId, tokenQuantity,\"\");\n            _urisByToken[tokenId] = 0;\n            _tokensClaimed[account] += 1; \n        }\n    }\n\n    function loadWL(\n        address[] calldata _whitelistedAddresses, \n        uint256[] calldata _amount\n    )external adminRequired{\n        for(uint256 i; i<_whitelistedAddresses.length; i++){\n            _tokensWhitelisted[_whitelistedAddresses[i]] = _amount[i];\n        }\n    }\n\n    function updateURIs(string [] calldata uris) public adminRequired{\n        delete _uris;\n        for(uint256 i=0; i < uris.length; i++){\n            _uris.push(uris[i]);\n        }\n    }\n\n    function getURIs()public view adminRequired returns ( string [] memory){\n        return _uris;\n    }\n\n    function _beforeTokenTransfer(\n        address operator,\n        address from,\n        address to,\n        uint256[] memory ids,\n        uint256[] memory amounts,\n        bytes memory data\n    ) internal override {\n        if(to != address(0) && from != address(0)){\n            for(uint8 i = 0; i < ids.length; i++){\n                if(_urisByToken[ids[i]] < _uris.length - 1){\n                    _urisByToken[ids[i]] = _urisByToken[ids[i]] + 1;\n                }\n            }\n        }\n    }\n\n    function uri(uint256 tokenId) public view override returns (string memory) {\n        return _uris[_urisByToken[tokenId]];\n    }\n\n    function burn(uint tokenId, uint quantity) external {\n        _burn(msg.sender, tokenId, quantity);\n    }\n\n    function setRoyalties(address _recipient, uint256 _amount) external adminRequired {\n        _royalties_recipient = _recipient;\n        _royalties_amount = _amount;\n    }\n\n    function royaltyInfo(uint256 tokenId, uint256 salePrice) public override view returns (address, uint256) {\n        if(tokenId <= _nextTokenId.current() && _royalties_recipient != address(0)){\n            return (_royalties_recipient, (salePrice * _royalties_amount) / 100 );\n        }\n        return (address(0), 0);\n    }\n\n}\n\n// pragma solidity >= 0.8.11;\n\n// import \"@openzeppelin/contracts/token/ERC721/extensions/ERC721URIStorage.sol\";\n// import \"@openzeppelin/contracts/utils/Counters.sol\";\n// import \"@openzeppelin/contracts/token//ERC20/IERC20.sol\";\n// import \"@manifoldxyz/royalty-registry-solidity/contracts/specs/IEIP2981.sol\";\n// import \"@manifoldxyz/libraries-solidity/contracts/access/AdminControl.sol\";\n\n// contract adreamwithinadream is Ownable, IEIP2981, ERC721URIStorage, AdminControl {\n    \n//     using Counters for Counters.Counter;\n//     mapping (uint256 => uint256) _urisByToken;\n//     mapping (address => uint256) public _tokensWhitelisted;\n//     mapping (address => uint256) public _tokensClaimed;\n\n//     string [] _uris;\n//     uint256 public ashPrice = 15; // 15 fakeASH\n//     uint256 _royalties_amount; // in percentage\n//     address public ashContract = 0xF4E9C3d8718b221b3bda4Cf905dDb3E9203f3CeE;\n//     address _royalties_recipient;\n//     // address public grecu_address = 0x66806e42191E65968Cd520D2615566E24368Ef12;\n\n//     // Prod\n//     // uint256 public ashPrice = 15000000000000000000; // 15 ASH\n//     // address public ashContract = 0x64D91f12Ece7362F91A6f8E7940Cd55F05060b92;\n//     Counters.Counter private _nextTokenId;\n\n//     constructor () ERC721(\"adreamwithinadream\", \"dream\") {\n//     }\n\n//     function supportsInterface(bytes4 interfaceId)\n//         public\n//         view\n//         virtual\n//         override(ERC721, AdminControl)\n//         returns (bool)\n//     {\n//         return\n//         AdminControl.supportsInterface(interfaceId) ||\n//         ERC721.supportsInterface(interfaceId) ||\n//         interfaceId == type(IEIP2981).interfaceId ||\n//         super.supportsInterface(interfaceId);\n//     }\n\n//     function mint(\n//         address account,\n//         uint256 tokenQuantity\n//     ) external{\n//         require(_uris.length > 0 && tokenQuantity > 0, \"Add a URI before minting and mint a positive number of tokens\");\n//         require( _tokensClaimed[account] + tokenQuantity <= _tokensWhitelisted[account] || isAdmin(msg.sender), \"You are not whitelisted for that many tokens!\");\n//         if(!isAdmin(msg.sender)){\n//             IERC20(ashContract).transferFrom(msg.sender, _royalties_recipient, ashPrice * tokenQuantity);\n//         }\n//         for(uint256 i = 1; i <= tokenQuantity; i++){\n//             _nextTokenId.increment();\n//             uint256 tokenId = _nextTokenId.current();\n//             _safeMint(account, tokenId);\n//             _urisByToken[tokenId] = 0;\n//             _setTokenURI(tokenId, _uris[0]);\n//             _tokensClaimed[account] += 1; \n//         }\n//     }\n\n//     function mintSpecial(address account, string calldata uri) external adminRequired{\n//         _nextTokenId.increment();\n//         uint256 tokenId = _nextTokenId.current();\n//         _safeMint(account, tokenId);\n//         _setTokenURI(tokenId, uri);\n//     }\n\n//     function loadWL(\n//         address[] calldata _whitelistedAddresses, \n//         uint256[] calldata _amount\n//     )external adminRequired{\n//         for(uint256 i; i<_whitelistedAddresses.length; i++){\n//             _tokensWhitelisted[_whitelistedAddresses[i]] = _amount[i];\n//         }\n//     }\n\n//     function updateURIs(string [] calldata uris) public adminRequired{\n//         delete _uris;\n//         for(uint256 i=0; i < uris.length; i++){\n//             _uris.push(uris[i]);\n//         }\n//     }\n\n//     function getURIs()public view adminRequired returns ( string [] memory){\n//         return _uris;\n//     }\n    \n\n//     function _incrementURI(\n//         uint256 tokenId\n//     ) private {\n//         _urisByToken[tokenId] = _urisByToken[tokenId] + 1;\n//         _setTokenURI(tokenId, _uris[_urisByToken[tokenId]]);\n//     }\n\n//    function _beforeTokenTransfer(\n//         address from,\n//         address to,\n//         uint256 tokenId\n//     ) internal override {\n//         if(to != address(0) && from != address(0)){\n//             if(_urisByToken[tokenId] < _uris.length - 1){\n//                 _incrementURI(tokenId);\n//             }\n//         }\n//     }\n\n//     function burn(uint256 tokenId) public {\n//         require(_isApprovedOrOwner(_msgSender(), tokenId), \"ERC721Burnable: caller is not owner nor approved\");\n//         _burn(tokenId);\n//     }\n\n//     function setRoyalties(address _recipient, uint256 _amount) external adminRequired {\n//         _royalties_recipient = _recipient;\n//         _royalties_amount = _amount;\n//     }\n\n//     function royaltyInfo(uint256 tokenId, uint256 salePrice) public override view returns (address, uint256) {\n//         if(tokenId <= _nextTokenId.current() && _royalties_recipient != address(0)){\n//             return (_royalties_recipient, (salePrice * _royalties_amount) / 100 );\n//         }\n//         return (address(0), 0);\n//     }\n\n//     function withdraw(address recipient) external adminRequired {\n//         payable(recipient).transfer(address(this).balance);\n//     }\n\n// }",
  "sourcePath": "/Users/bct/Documents/Dev/NFT_dev/adreamwithinadream/contracts/adreamwithinadream.sol",
  "compiler": {
    "name": "solc",
    "version": "0.8.11+commit.d7f03943.Emscripten.clang"
  },
  "schemaVersion": "3.4.4",
  "updatedAt": "2022-02-27T01:01:04.384Z",
  "devdoc": {
    "kind": "dev",
    "methods": {
      "approveAdmin(address)": {
        "details": "See {IAdminControl-approveAdmin}."
      },
      "balanceOf(address,uint256)": {
        "details": "See {IERC1155-balanceOf}. Requirements: - `account` cannot be the zero address."
      },
      "balanceOfBatch(address[],uint256[])": {
        "details": "See {IERC1155-balanceOfBatch}. Requirements: - `accounts` and `ids` must have the same length."
      },
      "getAdmins()": {
        "details": "See {IAdminControl-getAdmins}."
      },
      "isAdmin(address)": {
        "details": "See {IAdminControl-isAdmin}."
      },
      "isApprovedForAll(address,address)": {
        "details": "See {IERC1155-isApprovedForAll}."
      },
      "owner()": {
        "details": "Returns the address of the current owner."
      },
      "renounceOwnership()": {
        "details": "Leaves the contract without owner. It will not be possible to call `onlyOwner` functions anymore. Can only be called by the current owner. NOTE: Renouncing ownership will leave the contract without an owner, thereby removing any functionality that is only available to the owner."
      },
      "revokeAdmin(address)": {
        "details": "See {IAdminControl-revokeAdmin}."
      },
      "safeBatchTransferFrom(address,address,uint256[],uint256[],bytes)": {
        "details": "See {IERC1155-safeBatchTransferFrom}."
      },
      "safeTransferFrom(address,address,uint256,uint256,bytes)": {
        "details": "See {IERC1155-safeTransferFrom}."
      },
      "setApprovalForAll(address,bool)": {
        "details": "See {IERC1155-setApprovalForAll}."
      },
      "transferOwnership(address)": {
        "details": "Transfers ownership of the contract to a new account (`newOwner`). Can only be called by the current owner."
      }
    },
    "version": 1
  },
  "userdoc": {
    "kind": "user",
    "methods": {},
    "version": 1
  }
}