{
  "contractName": "wakeupfromadream",
  "abi": [
    {
      "inputs": [],
      "stateMutability": "nonpayable",
      "type": "constructor"
    },
    {
      "anonymous": false,
      "inputs": [
        {
          "indexed": true,
          "internalType": "address",
          "name": "account",
          "type": "address"
        },
        {
          "indexed": true,
          "internalType": "address",
          "name": "sender",
          "type": "address"
        }
      ],
      "name": "AdminApproved",
      "type": "event"
    },
    {
      "anonymous": false,
      "inputs": [
        {
          "indexed": true,
          "internalType": "address",
          "name": "account",
          "type": "address"
        },
        {
          "indexed": true,
          "internalType": "address",
          "name": "sender",
          "type": "address"
        }
      ],
      "name": "AdminRevoked",
      "type": "event"
    },
    {
      "anonymous": false,
      "inputs": [
        {
          "indexed": true,
          "internalType": "address",
          "name": "owner",
          "type": "address"
        },
        {
          "indexed": true,
          "internalType": "address",
          "name": "approved",
          "type": "address"
        },
        {
          "indexed": true,
          "internalType": "uint256",
          "name": "tokenId",
          "type": "uint256"
        }
      ],
      "name": "Approval",
      "type": "event"
    },
    {
      "anonymous": false,
      "inputs": [
        {
          "indexed": true,
          "internalType": "address",
          "name": "owner",
          "type": "address"
        },
        {
          "indexed": true,
          "internalType": "address",
          "name": "operator",
          "type": "address"
        },
        {
          "indexed": false,
          "internalType": "bool",
          "name": "approved",
          "type": "bool"
        }
      ],
      "name": "ApprovalForAll",
      "type": "event"
    },
    {
      "anonymous": false,
      "inputs": [
        {
          "indexed": true,
          "internalType": "address",
          "name": "previousOwner",
          "type": "address"
        },
        {
          "indexed": true,
          "internalType": "address",
          "name": "newOwner",
          "type": "address"
        }
      ],
      "name": "OwnershipTransferred",
      "type": "event"
    },
    {
      "anonymous": false,
      "inputs": [
        {
          "indexed": true,
          "internalType": "address",
          "name": "from",
          "type": "address"
        },
        {
          "indexed": true,
          "internalType": "address",
          "name": "to",
          "type": "address"
        },
        {
          "indexed": true,
          "internalType": "uint256",
          "name": "tokenId",
          "type": "uint256"
        }
      ],
      "name": "Transfer",
      "type": "event"
    },
    {
      "inputs": [
        {
          "internalType": "address",
          "name": "",
          "type": "address"
        }
      ],
      "name": "_tokensClaimed",
      "outputs": [
        {
          "internalType": "uint256",
          "name": "",
          "type": "uint256"
        }
      ],
      "stateMutability": "view",
      "type": "function",
      "constant": true
    },
    {
      "inputs": [
        {
          "internalType": "address",
          "name": "",
          "type": "address"
        }
      ],
      "name": "_tokensWhitelisted",
      "outputs": [
        {
          "internalType": "uint256",
          "name": "",
          "type": "uint256"
        }
      ],
      "stateMutability": "view",
      "type": "function",
      "constant": true
    },
    {
      "inputs": [
        {
          "internalType": "address",
          "name": "to",
          "type": "address"
        },
        {
          "internalType": "uint256",
          "name": "tokenId",
          "type": "uint256"
        }
      ],
      "name": "approve",
      "outputs": [],
      "stateMutability": "nonpayable",
      "type": "function"
    },
    {
      "inputs": [
        {
          "internalType": "address",
          "name": "admin",
          "type": "address"
        }
      ],
      "name": "approveAdmin",
      "outputs": [],
      "stateMutability": "nonpayable",
      "type": "function"
    },
    {
      "inputs": [],
      "name": "ashContract",
      "outputs": [
        {
          "internalType": "address",
          "name": "",
          "type": "address"
        }
      ],
      "stateMutability": "view",
      "type": "function",
      "constant": true
    },
    {
      "inputs": [],
      "name": "ashPrice",
      "outputs": [
        {
          "internalType": "uint256",
          "name": "",
          "type": "uint256"
        }
      ],
      "stateMutability": "view",
      "type": "function",
      "constant": true
    },
    {
      "inputs": [
        {
          "internalType": "address",
          "name": "owner",
          "type": "address"
        }
      ],
      "name": "balanceOf",
      "outputs": [
        {
          "internalType": "uint256",
          "name": "",
          "type": "uint256"
        }
      ],
      "stateMutability": "view",
      "type": "function",
      "constant": true
    },
    {
      "inputs": [
        {
          "internalType": "uint256",
          "name": "tokenId",
          "type": "uint256"
        }
      ],
      "name": "burn",
      "outputs": [],
      "stateMutability": "nonpayable",
      "type": "function"
    },
    {
      "inputs": [],
      "name": "getAdmins",
      "outputs": [
        {
          "internalType": "address[]",
          "name": "admins",
          "type": "address[]"
        }
      ],
      "stateMutability": "view",
      "type": "function",
      "constant": true
    },
    {
      "inputs": [
        {
          "internalType": "uint256",
          "name": "tokenId",
          "type": "uint256"
        }
      ],
      "name": "getApproved",
      "outputs": [
        {
          "internalType": "address",
          "name": "",
          "type": "address"
        }
      ],
      "stateMutability": "view",
      "type": "function",
      "constant": true
    },
    {
      "inputs": [],
      "name": "getURIs",
      "outputs": [
        {
          "internalType": "string[]",
          "name": "",
          "type": "string[]"
        }
      ],
      "stateMutability": "view",
      "type": "function",
      "constant": true
    },
    {
      "inputs": [
        {
          "internalType": "address",
          "name": "admin",
          "type": "address"
        }
      ],
      "name": "isAdmin",
      "outputs": [
        {
          "internalType": "bool",
          "name": "",
          "type": "bool"
        }
      ],
      "stateMutability": "view",
      "type": "function",
      "constant": true
    },
    {
      "inputs": [
        {
          "internalType": "address",
          "name": "owner",
          "type": "address"
        },
        {
          "internalType": "address",
          "name": "operator",
          "type": "address"
        }
      ],
      "name": "isApprovedForAll",
      "outputs": [
        {
          "internalType": "bool",
          "name": "",
          "type": "bool"
        }
      ],
      "stateMutability": "view",
      "type": "function",
      "constant": true
    },
    {
      "inputs": [
        {
          "internalType": "address[]",
          "name": "_whitelistedAddresses",
          "type": "address[]"
        },
        {
          "internalType": "uint256[]",
          "name": "_amount",
          "type": "uint256[]"
        }
      ],
      "name": "loadWL",
      "outputs": [],
      "stateMutability": "nonpayable",
      "type": "function"
    },
    {
      "inputs": [
        {
          "internalType": "address",
          "name": "account",
          "type": "address"
        },
        {
          "internalType": "uint256",
          "name": "tokenQuantity",
          "type": "uint256"
        }
      ],
      "name": "mint",
      "outputs": [],
      "stateMutability": "nonpayable",
      "type": "function"
    },
    {
      "inputs": [
        {
          "internalType": "address",
          "name": "account",
          "type": "address"
        },
        {
          "internalType": "string",
          "name": "uri",
          "type": "string"
        }
      ],
      "name": "mintSpecial",
      "outputs": [],
      "stateMutability": "nonpayable",
      "type": "function"
    },
    {
      "inputs": [],
      "name": "name",
      "outputs": [
        {
          "internalType": "string",
          "name": "",
          "type": "string"
        }
      ],
      "stateMutability": "view",
      "type": "function",
      "constant": true
    },
    {
      "inputs": [],
      "name": "owner",
      "outputs": [
        {
          "internalType": "address",
          "name": "",
          "type": "address"
        }
      ],
      "stateMutability": "view",
      "type": "function",
      "constant": true
    },
    {
      "inputs": [
        {
          "internalType": "uint256",
          "name": "tokenId",
          "type": "uint256"
        }
      ],
      "name": "ownerOf",
      "outputs": [
        {
          "internalType": "address",
          "name": "",
          "type": "address"
        }
      ],
      "stateMutability": "view",
      "type": "function",
      "constant": true
    },
    {
      "inputs": [],
      "name": "renounceOwnership",
      "outputs": [],
      "stateMutability": "nonpayable",
      "type": "function"
    },
    {
      "inputs": [
        {
          "internalType": "address",
          "name": "admin",
          "type": "address"
        }
      ],
      "name": "revokeAdmin",
      "outputs": [],
      "stateMutability": "nonpayable",
      "type": "function"
    },
    {
      "inputs": [
        {
          "internalType": "uint256",
          "name": "tokenId",
          "type": "uint256"
        },
        {
          "internalType": "uint256",
          "name": "salePrice",
          "type": "uint256"
        }
      ],
      "name": "royaltyInfo",
      "outputs": [
        {
          "internalType": "address",
          "name": "",
          "type": "address"
        },
        {
          "internalType": "uint256",
          "name": "",
          "type": "uint256"
        }
      ],
      "stateMutability": "view",
      "type": "function",
      "constant": true
    },
    {
      "inputs": [
        {
          "internalType": "address",
          "name": "from",
          "type": "address"
        },
        {
          "internalType": "address",
          "name": "to",
          "type": "address"
        },
        {
          "internalType": "uint256",
          "name": "tokenId",
          "type": "uint256"
        }
      ],
      "name": "safeTransferFrom",
      "outputs": [],
      "stateMutability": "nonpayable",
      "type": "function"
    },
    {
      "inputs": [
        {
          "internalType": "address",
          "name": "from",
          "type": "address"
        },
        {
          "internalType": "address",
          "name": "to",
          "type": "address"
        },
        {
          "internalType": "uint256",
          "name": "tokenId",
          "type": "uint256"
        },
        {
          "internalType": "bytes",
          "name": "_data",
          "type": "bytes"
        }
      ],
      "name": "safeTransferFrom",
      "outputs": [],
      "stateMutability": "nonpayable",
      "type": "function"
    },
    {
      "inputs": [
        {
          "internalType": "address",
          "name": "operator",
          "type": "address"
        },
        {
          "internalType": "bool",
          "name": "approved",
          "type": "bool"
        }
      ],
      "name": "setApprovalForAll",
      "outputs": [],
      "stateMutability": "nonpayable",
      "type": "function"
    },
    {
      "inputs": [
        {
          "internalType": "address",
          "name": "_recipient",
          "type": "address"
        },
        {
          "internalType": "uint256",
          "name": "_amount",
          "type": "uint256"
        }
      ],
      "name": "setRoyalties",
      "outputs": [],
      "stateMutability": "nonpayable",
      "type": "function"
    },
    {
      "inputs": [
        {
          "internalType": "bytes4",
          "name": "interfaceId",
          "type": "bytes4"
        }
      ],
      "name": "supportsInterface",
      "outputs": [
        {
          "internalType": "bool",
          "name": "",
          "type": "bool"
        }
      ],
      "stateMutability": "view",
      "type": "function",
      "constant": true
    },
    {
      "inputs": [],
      "name": "symbol",
      "outputs": [
        {
          "internalType": "string",
          "name": "",
          "type": "string"
        }
      ],
      "stateMutability": "view",
      "type": "function",
      "constant": true
    },
    {
      "inputs": [
        {
          "internalType": "address",
          "name": "from",
          "type": "address"
        },
        {
          "internalType": "address",
          "name": "to",
          "type": "address"
        },
        {
          "internalType": "uint256",
          "name": "tokenId",
          "type": "uint256"
        }
      ],
      "name": "transferFrom",
      "outputs": [],
      "stateMutability": "nonpayable",
      "type": "function"
    },
    {
      "inputs": [
        {
          "internalType": "address",
          "name": "newOwner",
          "type": "address"
        }
      ],
      "name": "transferOwnership",
      "outputs": [],
      "stateMutability": "nonpayable",
      "type": "function"
    },
    {
      "inputs": [
        {
          "internalType": "string[]",
          "name": "uris",
          "type": "string[]"
        }
      ],
      "name": "updateURIs",
      "outputs": [],
      "stateMutability": "nonpayable",
      "type": "function"
    },
    {
      "inputs": [
        {
          "internalType": "address",
          "name": "recipient",
          "type": "address"
        }
      ],
      "name": "withdraw",
      "outputs": [],
      "stateMutability": "nonpayable",
      "type": "function"
    },
    {
      "inputs": [
        {
          "internalType": "uint256",
          "name": "tokenId",
          "type": "uint256"
        }
      ],
      "name": "tokenURI",
      "outputs": [
        {
          "internalType": "string",
          "name": "",
          "type": "string"
        }
      ],
      "stateMutability": "view",
      "type": "function",
      "constant": true
    }
  ],
  "bytecode": "0x608060405267d02ab486cedc0000600e557364d91f12ece7362f91a6f8e7940cd55f05060b92601060006101000a81548173ffffffffffffffffffffffffffffffffffffffff021916908373ffffffffffffffffffffffffffffffffffffffff1602179055503480156200007257600080fd5b506040518060400160405280601281526020017f61647265616d77697468696e61647265616d00000000000000000000000000008152506040518060400160405280600581526020017f647265616d000000000000000000000000000000000000000000000000000000815250620000ff620000f36200013960201b60201c565b6200014160201b60201c565b81600190805190602001906200011792919062000205565b5080600290805190602001906200013092919062000205565b5050506200031a565b600033905090565b60008060009054906101000a900473ffffffffffffffffffffffffffffffffffffffff169050816000806101000a81548173ffffffffffffffffffffffffffffffffffffffff021916908373ffffffffffffffffffffffffffffffffffffffff1602179055508173ffffffffffffffffffffffffffffffffffffffff168173ffffffffffffffffffffffffffffffffffffffff167f8be0079c531659141344cd1fd0a4f28419497f9722a3daafe3b4186f6b6457e060405160405180910390a35050565b8280546200021390620002e4565b90600052602060002090601f01602090048101928262000237576000855562000283565b82601f106200025257805160ff191683800117855562000283565b8280016001018555821562000283579182015b828111156200028257825182559160200191906001019062000265565b5b50905062000292919062000296565b5090565b5b80821115620002b157600081600090555060010162000297565b5090565b7f4e487b7100000000000000000000000000000000000000000000000000000000600052602260045260246000fd5b60006002820490506001821680620002fd57607f821691505b60208210811415620003145762000313620002b5565b5b50919050565b614ce5806200032a6000396000f3fe608060405234801561001057600080fd5b50600436106101fb5760003560e01c8063582453621161011a57806395d89b41116100ad578063b88d4fde1161007c578063b88d4fde14610599578063bc8485a5146105b5578063c87b56dd146105e5578063e985e9c514610615578063f2fde38b14610645576101fb565b806395d89b4114610525578063a22cb46514610543578063a420ed3e1461055f578063b7951cf71461057d576101fb565b8063715018a6116100e9578063715018a6146104c35780638c7ea24b146104cd5780638cf77604146104e95780638da5cb5b14610507576101fb565b8063582453621461042b5780636352211e146104475780636d73e6691461047757806370a0823114610493576101fb565b80632a55205a1161019257806340c10f191161016157806340c10f19146103bb57806342842e0e146103d757806342966c68146103f357806351cff8d91461040f576101fb565b80632a55205a146103205780632d345670146103515780632f25662a1461036d57806331ae450b1461039d576101fb565b80631a04c4ec116101ce5780631a04c4ec1461029a57806323b872dd146102b657806324d7806c146102d257806328c5440f14610302576101fb565b806301ffc9a71461020057806306fdde0314610230578063081812fc1461024e578063095ea7b31461027e575b600080fd5b61021a600480360381019061021591906132a6565b610661565b60405161022791906132ee565b60405180910390f35b6102386106fb565b60405161024591906133a2565b60405180910390f35b610268600480360381019061026391906133fa565b61078d565b6040516102759190613468565b60405180910390f35b610298600480360381019061029391906134af565b610812565b005b6102b460048036038101906102af9190613554565b61092a565b005b6102d060048036038101906102cb91906135b4565b610a30565b005b6102ec60048036038101906102e79190613607565b610a90565b6040516102f991906132ee565b60405180910390f35b61030a610aea565b6040516103179190613740565b60405180910390f35b61033a60048036038101906103359190613762565b610c53565b6040516103489291906137b1565b60405180910390f35b61036b60048036038101906103669190613607565b610d18565b005b61038760048036038101906103829190613607565b610e20565b60405161039491906137da565b60405180910390f35b6103a5610e38565b6040516103b291906138b3565b60405180910390f35b6103d560048036038101906103d091906134af565b610f1a565b005b6103f160048036038101906103ec91906135b4565b611294565b005b61040d600480360381019061040891906133fa565b6112b4565b005b61042960048036038101906104249190613607565b611310565b005b61044560048036038101906104409190613981565b6113ea565b005b610461600480360381019061045c91906133fa565b611526565b60405161046e9190613468565b60405180910390f35b610491600480360381019061048c9190613607565b6115d8565b005b6104ad60048036038101906104a89190613607565b6116df565b6040516104ba91906137da565b60405180910390f35b6104cb611797565b005b6104e760048036038101906104e291906134af565b61181f565b005b6104f16118fb565b6040516104fe91906137da565b60405180910390f35b61050f611901565b60405161051c9190613468565b60405180910390f35b61052d61192a565b60405161053a91906133a2565b60405180910390f35b61055d60048036038101906105589190613a2e565b6119bc565b005b6105676119d2565b6040516105749190613468565b60405180910390f35b61059760048036038101906105929190613ac4565b6119f8565b005b6105b360048036038101906105ae9190613c41565b611b1d565b005b6105cf60048036038101906105ca9190613607565b611b7f565b6040516105dc91906137da565b60405180910390f35b6105ff60048036038101906105fa91906133fa565b611b97565b60405161060c91906133a2565b60405180910390f35b61062f600480360381019061062a9190613cc4565b611c1e565b60405161063c91906132ee565b60405180910390f35b61065f600480360381019061065a9190613607565b611cb2565b005b600061066c82611daa565b8061067c575061067b82611e24565b5b806106e457507f2a55205a000000000000000000000000000000000000000000000000000000007bffffffffffffffffffffffffffffffffffffffffffffffffffffffff1916827bffffffffffffffffffffffffffffffffffffffffffffffffffffffff1916145b806106f457506106f382611daa565b5b9050919050565b60606001805461070a90613d33565b80601f016020809104026020016040519081016040528092919081815260200182805461073690613d33565b80156107835780601f1061075857610100808354040283529160200191610783565b820191906000526020600020905b81548152906001019060200180831161076657829003601f168201915b5050505050905090565b600061079882611f06565b6107d7576040517f08c379a00000000000000000000000000000000000000000000000000000000081526004016107ce90613dd7565b60405180910390fd5b6005600083815260200190815260200160002060009054906101000a900473ffffffffffffffffffffffffffffffffffffffff169050919050565b600061081d82611526565b90508073ffffffffffffffffffffffffffffffffffffffff168373ffffffffffffffffffffffffffffffffffffffff16141561088e576040517f08c379a000000000000000000000000000000000000000000000000000000000815260040161088590613e69565b60405180910390fd5b8073ffffffffffffffffffffffffffffffffffffffff166108ad611f72565b73ffffffffffffffffffffffffffffffffffffffff1614806108dc57506108db816108d6611f72565b611c1e565b5b61091b576040517f08c379a000000000000000000000000000000000000000000000000000000000815260040161091290613efb565b60405180910390fd5b6109258383611f7a565b505050565b3373ffffffffffffffffffffffffffffffffffffffff16610949611901565b73ffffffffffffffffffffffffffffffffffffffff16148061097b575061097a33600861203390919063ffffffff16565b5b6109ba576040517f08c379a00000000000000000000000000000000000000000000000000000000081526004016109b190613f8d565b60405180910390fd5b6109c46012612063565b60006109d06012612079565b90506109dc8482612087565b610a2a8184848080601f016020809104026020016040519081016040528093929190818152602001838380828437600081840152601f19601f820116905080830192505050505050506120a5565b50505050565b610a41610a3b611f72565b82612119565b610a80576040517f08c379a0000000000000000000000000000000000000000000000000000000008152600401610a779061401f565b60405180910390fd5b610a8b8383836121f7565b505050565b60008173ffffffffffffffffffffffffffffffffffffffff16610ab1611901565b73ffffffffffffffffffffffffffffffffffffffff161480610ae35750610ae282600861203390919063ffffffff16565b5b9050919050565b60603373ffffffffffffffffffffffffffffffffffffffff16610b0b611901565b73ffffffffffffffffffffffffffffffffffffffff161480610b3d5750610b3c33600861203390919063ffffffff16565b5b610b7c576040517f08c379a0000000000000000000000000000000000000000000000000000000008152600401610b7390613f8d565b60405180910390fd5b600d805480602002602001604051908101604052809291908181526020016000905b82821015610c4a578382906000526020600020018054610bbd90613d33565b80601f0160208091040260200160405190810160405280929190818152602001828054610be990613d33565b8015610c365780601f10610c0b57610100808354040283529160200191610c36565b820191906000526020600020905b815481529060010190602001808311610c1957829003601f168201915b505050505081526020019060010190610b9e565b50505050905090565b600080610c606012612079565b8411158015610cbe5750600073ffffffffffffffffffffffffffffffffffffffff16601160009054906101000a900473ffffffffffffffffffffffffffffffffffffffff1673ffffffffffffffffffffffffffffffffffffffff1614155b15610d0957601160009054906101000a900473ffffffffffffffffffffffffffffffffffffffff166064600f5485610cf6919061406e565b610d0091906140f7565b91509150610d11565b600080915091505b9250929050565b610d20611f72565b73ffffffffffffffffffffffffffffffffffffffff16610d3e611901565b73ffffffffffffffffffffffffffffffffffffffff1614610d94576040517f08c379a0000000000000000000000000000000000000000000000000000000008152600401610d8b90614174565b60405180910390fd5b610da881600861203390919063ffffffff16565b15610e1d573373ffffffffffffffffffffffffffffffffffffffff168173ffffffffffffffffffffffffffffffffffffffff167f7c0c3c84c67c85fcac635147348bfe374c24a1a93d0366d1cfe9d8853cbf89d560405160405180910390a3610e1b81600861245390919063ffffffff16565b505b50565b600b6020528060005260406000206000915090505481565b6060610e446008612483565b67ffffffffffffffff811115610e5d57610e5c613b16565b5b604051908082528060200260200182016040528015610e8b5781602001602082028036833780820191505090505b50905060005b610e9b6008612483565b811015610f1657610eb681600861249890919063ffffffff16565b828281518110610ec957610ec8614194565b5b602002602001019073ffffffffffffffffffffffffffffffffffffffff16908173ffffffffffffffffffffffffffffffffffffffff16815250508080610f0e906141c3565b915050610e91565b5090565b6000600d80549050118015610f2f5750600081115b610f6e576040517f08c379a0000000000000000000000000000000000000000000000000000000008152600401610f659061427e565b60405180910390fd5b600b60008373ffffffffffffffffffffffffffffffffffffffff1673ffffffffffffffffffffffffffffffffffffffff1681526020019081526020016000205481600c60008573ffffffffffffffffffffffffffffffffffffffff1673ffffffffffffffffffffffffffffffffffffffff16815260200190815260200160002054610ff9919061429e565b11158061100b575061100a33610a90565b5b61104a576040517f08c379a000000000000000000000000000000000000000000000000000000000815260040161104190614366565b60405180910390fd5b61105333610a90565b61112a57601060009054906101000a900473ffffffffffffffffffffffffffffffffffffffff1673ffffffffffffffffffffffffffffffffffffffff166323b872dd33601160009054906101000a900473ffffffffffffffffffffffffffffffffffffffff1684600e546110c7919061406e565b6040518463ffffffff1660e01b81526004016110e593929190614386565b6020604051808303816000875af1158015611104573d6000803e3d6000fd5b505050506040513d601f19601f8201168201806040525081019061112891906143d2565b505b6000600190505b81811161128f576111426012612063565b600061114e6012612079565b905061115a8482612087565b6000600a60008381526020019081526020016000208190555061122481600d60008154811061118c5761118b614194565b5b9060005260206000200180546111a190613d33565b80601f01602080910402602001604051908101604052809291908181526020018280546111cd90613d33565b801561121a5780601f106111ef5761010080835404028352916020019161121a565b820191906000526020600020905b8154815290600101906020018083116111fd57829003601f168201915b50505050506120a5565b6001600c60008673ffffffffffffffffffffffffffffffffffffffff1673ffffffffffffffffffffffffffffffffffffffff1681526020019081526020016000206000828254611274919061429e565b92505081905550508080611287906141c3565b915050611131565b505050565b6112af83838360405180602001604052806000815250611b1d565b505050565b6112c56112bf611f72565b82612119565b611304576040517f08c379a00000000000000000000000000000000000000000000000000000000081526004016112fb90614471565b60405180910390fd5b61130d816124b2565b50565b3373ffffffffffffffffffffffffffffffffffffffff1661132f611901565b73ffffffffffffffffffffffffffffffffffffffff161480611361575061136033600861203390919063ffffffff16565b5b6113a0576040517f08c379a000000000000000000000000000000000000000000000000000000000815260040161139790613f8d565b60405180910390fd5b8073ffffffffffffffffffffffffffffffffffffffff166108fc479081150290604051600060405180830381858888f193505050501580156113e6573d6000803e3d6000fd5b5050565b3373ffffffffffffffffffffffffffffffffffffffff16611409611901565b73ffffffffffffffffffffffffffffffffffffffff16148061143b575061143a33600861203390919063ffffffff16565b5b61147a576040517f08c379a000000000000000000000000000000000000000000000000000000000815260040161147190613f8d565b60405180910390fd5b60005b8484905081101561151f5782828281811061149b5761149a614194565b5b90506020020135600b60008787858181106114b9576114b8614194565b5b90506020020160208101906114ce9190613607565b73ffffffffffffffffffffffffffffffffffffffff1673ffffffffffffffffffffffffffffffffffffffff168152602001908152602001600020819055508080611517906141c3565b91505061147d565b5050505050565b6000806003600084815260200190815260200160002060009054906101000a900473ffffffffffffffffffffffffffffffffffffffff169050600073ffffffffffffffffffffffffffffffffffffffff168173ffffffffffffffffffffffffffffffffffffffff1614156115cf576040517f08c379a00000000000000000000000000000000000000000000000000000000081526004016115c690614503565b60405180910390fd5b80915050919050565b6115e0611f72565b73ffffffffffffffffffffffffffffffffffffffff166115fe611901565b73ffffffffffffffffffffffffffffffffffffffff1614611654576040517f08c379a000000000000000000000000000000000000000000000000000000000815260040161164b90614174565b60405180910390fd5b61166881600861203390919063ffffffff16565b6116dc573373ffffffffffffffffffffffffffffffffffffffff168173ffffffffffffffffffffffffffffffffffffffff167f7e1a1a08d52e4ba0e21554733d66165fd5151f99460116223d9e3a608eec5cb160405160405180910390a36116da81600861250590919063ffffffff16565b505b50565b60008073ffffffffffffffffffffffffffffffffffffffff168273ffffffffffffffffffffffffffffffffffffffff161415611750576040517f08c379a000000000000000000000000000000000000000000000000000000000815260040161174790614595565b60405180910390fd5b600460008373ffffffffffffffffffffffffffffffffffffffff1673ffffffffffffffffffffffffffffffffffffffff168152602001908152602001600020549050919050565b61179f611f72565b73ffffffffffffffffffffffffffffffffffffffff166117bd611901565b73ffffffffffffffffffffffffffffffffffffffff1614611813576040517f08c379a000000000000000000000000000000000000000000000000000000000815260040161180a90614174565b60405180910390fd5b61181d6000612535565b565b3373ffffffffffffffffffffffffffffffffffffffff1661183e611901565b73ffffffffffffffffffffffffffffffffffffffff161480611870575061186f33600861203390919063ffffffff16565b5b6118af576040517f08c379a00000000000000000000000000000000000000000000000000000000081526004016118a690613f8d565b60405180910390fd5b81601160006101000a81548173ffffffffffffffffffffffffffffffffffffffff021916908373ffffffffffffffffffffffffffffffffffffffff16021790555080600f819055505050565b600e5481565b60008060009054906101000a900473ffffffffffffffffffffffffffffffffffffffff16905090565b60606002805461193990613d33565b80601f016020809104026020016040519081016040528092919081815260200182805461196590613d33565b80156119b25780601f10611987576101008083540402835291602001916119b2565b820191906000526020600020905b81548152906001019060200180831161199557829003601f168201915b5050505050905090565b6119ce6119c7611f72565b83836125f9565b5050565b601060009054906101000a900473ffffffffffffffffffffffffffffffffffffffff1681565b3373ffffffffffffffffffffffffffffffffffffffff16611a17611901565b73ffffffffffffffffffffffffffffffffffffffff161480611a495750611a4833600861203390919063ffffffff16565b5b611a88576040517f08c379a0000000000000000000000000000000000000000000000000000000008152600401611a7f90613f8d565b60405180910390fd5b600d6000611a96919061308c565b60005b82829050811015611b1857600d838383818110611ab957611ab8614194565b5b9050602002810190611acb91906145c4565b90918060018154018082558091505060019003906000526020600020016000909192909192909192909192509190611b049291906130ad565b508080611b10906141c3565b915050611a99565b505050565b611b2e611b28611f72565b83612119565b611b6d576040517f08c379a0000000000000000000000000000000000000000000000000000000008152600401611b649061401f565b60405180910390fd5b611b7984848484612766565b50505050565b600c6020528060005260406000206000915090505481565b6060611ba282611f06565b611be1576040517f08c379a0000000000000000000000000000000000000000000000000000000008152600401611bd890614699565b60405180910390fd5b6040518060400160405280600581526020017f776f726b730000000000000000000000000000000000000000000000000000008152509050919050565b6000600660008473ffffffffffffffffffffffffffffffffffffffff1673ffffffffffffffffffffffffffffffffffffffff16815260200190815260200160002060008373ffffffffffffffffffffffffffffffffffffffff1673ffffffffffffffffffffffffffffffffffffffff16815260200190815260200160002060009054906101000a900460ff16905092915050565b611cba611f72565b73ffffffffffffffffffffffffffffffffffffffff16611cd8611901565b73ffffffffffffffffffffffffffffffffffffffff1614611d2e576040517f08c379a0000000000000000000000000000000000000000000000000000000008152600401611d2590614174565b60405180910390fd5b600073ffffffffffffffffffffffffffffffffffffffff168173ffffffffffffffffffffffffffffffffffffffff161415611d9e576040517f08c379a0000000000000000000000000000000000000000000000000000000008152600401611d959061472b565b60405180910390fd5b611da781612535565b50565b60007f553e757e000000000000000000000000000000000000000000000000000000007bffffffffffffffffffffffffffffffffffffffffffffffffffffffff1916827bffffffffffffffffffffffffffffffffffffffffffffffffffffffff19161480611e1d5750611e1c82611e24565b5b9050919050565b60007f80ac58cd000000000000000000000000000000000000000000000000000000007bffffffffffffffffffffffffffffffffffffffffffffffffffffffff1916827bffffffffffffffffffffffffffffffffffffffffffffffffffffffff19161480611eef57507f5b5e139f000000000000000000000000000000000000000000000000000000007bffffffffffffffffffffffffffffffffffffffffffffffffffffffff1916827bffffffffffffffffffffffffffffffffffffffffffffffffffffffff1916145b80611eff5750611efe826127c2565b5b9050919050565b60008073ffffffffffffffffffffffffffffffffffffffff166003600084815260200190815260200160002060009054906101000a900473ffffffffffffffffffffffffffffffffffffffff1673ffffffffffffffffffffffffffffffffffffffff1614159050919050565b600033905090565b816005600083815260200190815260200160002060006101000a81548173ffffffffffffffffffffffffffffffffffffffff021916908373ffffffffffffffffffffffffffffffffffffffff160217905550808273ffffffffffffffffffffffffffffffffffffffff16611fed83611526565b73ffffffffffffffffffffffffffffffffffffffff167f8c5be1e5ebec7d5bd14f71427d1e84f3dd0314c0f7b2291e5b200ac8c7c3b92560405160405180910390a45050565b600061205b836000018373ffffffffffffffffffffffffffffffffffffffff1660001b61282c565b905092915050565b6001816000016000828254019250508190555050565b600081600001549050919050565b6120a182826040518060200160405280600081525061284f565b5050565b6120ae82611f06565b6120ed576040517f08c379a00000000000000000000000000000000000000000000000000000000081526004016120e4906147bd565b60405180910390fd5b80600760008481526020019081526020016000209080519060200190612114929190613133565b505050565b600061212482611f06565b612163576040517f08c379a000000000000000000000000000000000000000000000000000000000815260040161215a9061484f565b60405180910390fd5b600061216e83611526565b90508073ffffffffffffffffffffffffffffffffffffffff168473ffffffffffffffffffffffffffffffffffffffff1614806121dd57508373ffffffffffffffffffffffffffffffffffffffff166121c58461078d565b73ffffffffffffffffffffffffffffffffffffffff16145b806121ee57506121ed8185611c1e565b5b91505092915050565b8273ffffffffffffffffffffffffffffffffffffffff1661221782611526565b73ffffffffffffffffffffffffffffffffffffffff161461226d576040517f08c379a0000000000000000000000000000000000000000000000000000000008152600401612264906148e1565b60405180910390fd5b600073ffffffffffffffffffffffffffffffffffffffff168273ffffffffffffffffffffffffffffffffffffffff1614156122dd576040517f08c379a00000000000000000000000000000000000000000000000000000000081526004016122d490614973565b60405180910390fd5b6122e88383836128aa565b6122f3600082611f7a565b6001600460008573ffffffffffffffffffffffffffffffffffffffff1673ffffffffffffffffffffffffffffffffffffffff16815260200190815260200160002060008282546123439190614993565b925050819055506001600460008473ffffffffffffffffffffffffffffffffffffffff1673ffffffffffffffffffffffffffffffffffffffff168152602001908152602001600020600082825461239a919061429e565b92505081905550816003600083815260200190815260200160002060006101000a81548173ffffffffffffffffffffffffffffffffffffffff021916908373ffffffffffffffffffffffffffffffffffffffff160217905550808273ffffffffffffffffffffffffffffffffffffffff168473ffffffffffffffffffffffffffffffffffffffff167fddf252ad1be2c89b69c2b068fc378daa952ba7f163c4a11628f55a4df523b3ef60405160405180910390a4505050565b600061247b836000018373ffffffffffffffffffffffffffffffffffffffff1660001b612955565b905092915050565b600061249182600001612a69565b9050919050565b60006124a78360000183612a7a565b60001c905092915050565b6124bb81612aa5565b60006007600083815260200190815260200160002080546124db90613d33565b9050146125025760076000828152602001908152602001600020600061250191906131b9565b5b50565b600061252d836000018373ffffffffffffffffffffffffffffffffffffffff1660001b612bb6565b905092915050565b60008060009054906101000a900473ffffffffffffffffffffffffffffffffffffffff169050816000806101000a81548173ffffffffffffffffffffffffffffffffffffffff021916908373ffffffffffffffffffffffffffffffffffffffff1602179055508173ffffffffffffffffffffffffffffffffffffffff168173ffffffffffffffffffffffffffffffffffffffff167f8be0079c531659141344cd1fd0a4f28419497f9722a3daafe3b4186f6b6457e060405160405180910390a35050565b8173ffffffffffffffffffffffffffffffffffffffff168373ffffffffffffffffffffffffffffffffffffffff161415612668576040517f08c379a000000000000000000000000000000000000000000000000000000000815260040161265f90614a13565b60405180910390fd5b80600660008573ffffffffffffffffffffffffffffffffffffffff1673ffffffffffffffffffffffffffffffffffffffff16815260200190815260200160002060008473ffffffffffffffffffffffffffffffffffffffff1673ffffffffffffffffffffffffffffffffffffffff16815260200190815260200160002060006101000a81548160ff0219169083151502179055508173ffffffffffffffffffffffffffffffffffffffff168373ffffffffffffffffffffffffffffffffffffffff167f17307eab39ab6107e8899845ad3d59bd9653f200f220920489ca2b5937696c318360405161275991906132ee565b60405180910390a3505050565b6127718484846121f7565b61277d84848484612c26565b6127bc576040517f08c379a00000000000000000000000000000000000000000000000000000000081526004016127b390614aa5565b60405180910390fd5b50505050565b60007f01ffc9a7000000000000000000000000000000000000000000000000000000007bffffffffffffffffffffffffffffffffffffffffffffffffffffffff1916827bffffffffffffffffffffffffffffffffffffffffffffffffffffffff1916149050919050565b600080836001016000848152602001908152602001600020541415905092915050565b6128598383612dae565b6128666000848484612c26565b6128a5576040517f08c379a000000000000000000000000000000000000000000000000000000000815260040161289c90614aa5565b60405180910390fd5b505050565b600073ffffffffffffffffffffffffffffffffffffffff168273ffffffffffffffffffffffffffffffffffffffff16141580156129145750600073ffffffffffffffffffffffffffffffffffffffff168373ffffffffffffffffffffffffffffffffffffffff1614155b15612950576001600d8054905061292b9190614993565b600a600083815260200190815260200160002054101561294f5761294e81612f7c565b5b5b505050565b60008083600101600084815260200190815260200160002054905060008114612a5d5760006001826129879190614993565b905060006001866000018054905061299f9190614993565b9050818114612a0e5760008660000182815481106129c0576129bf614194565b5b90600052602060002001549050808760000184815481106129e4576129e3614194565b5b90600052602060002001819055508387600101600083815260200190815260200160002081905550505b85600001805480612a2257612a21614ac5565b5b600190038181906000526020600020016000905590558560010160008681526020019081526020016000206000905560019350505050612a63565b60009150505b92915050565b600081600001805490509050919050565b6000826000018281548110612a9257612a91614194565b5b9060005260206000200154905092915050565b6000612ab082611526565b9050612abe816000846128aa565b612ac9600083611f7a565b6001600460008373ffffffffffffffffffffffffffffffffffffffff1673ffffffffffffffffffffffffffffffffffffffff1681526020019081526020016000206000828254612b199190614993565b925050819055506003600083815260200190815260200160002060006101000a81549073ffffffffffffffffffffffffffffffffffffffff021916905581600073ffffffffffffffffffffffffffffffffffffffff168273ffffffffffffffffffffffffffffffffffffffff167fddf252ad1be2c89b69c2b068fc378daa952ba7f163c4a11628f55a4df523b3ef60405160405180910390a45050565b6000612bc2838361282c565b612c1b578260000182908060018154018082558091505060019003906000526020600020016000909190919091505582600001805490508360010160008481526020019081526020016000208190555060019050612c20565b600090505b92915050565b6000612c478473ffffffffffffffffffffffffffffffffffffffff16613079565b15612da1578373ffffffffffffffffffffffffffffffffffffffff1663150b7a02612c70611f72565b8786866040518563ffffffff1660e01b8152600401612c929493929190614b49565b6020604051808303816000875af1925050508015612cce57506040513d601f19601f82011682018060405250810190612ccb9190614baa565b60015b612d51573d8060008114612cfe576040519150601f19603f3d011682016040523d82523d6000602084013e612d03565b606091505b50600081511415612d49576040517f08c379a0000000000000000000000000000000000000000000000000000000008152600401612d4090614aa5565b60405180910390fd5b805181602001fd5b63150b7a0260e01b7bffffffffffffffffffffffffffffffffffffffffffffffffffffffff1916817bffffffffffffffffffffffffffffffffffffffffffffffffffffffff191614915050612da6565b600190505b949350505050565b600073ffffffffffffffffffffffffffffffffffffffff168273ffffffffffffffffffffffffffffffffffffffff161415612e1e576040517f08c379a0000000000000000000000000000000000000000000000000000000008152600401612e1590614c23565b60405180910390fd5b612e2781611f06565b15612e67576040517f08c379a0000000000000000000000000000000000000000000000000000000008152600401612e5e90614c8f565b60405180910390fd5b612e73600083836128aa565b6001600460008473ffffffffffffffffffffffffffffffffffffffff1673ffffffffffffffffffffffffffffffffffffffff1681526020019081526020016000206000828254612ec3919061429e565b92505081905550816003600083815260200190815260200160002060006101000a81548173ffffffffffffffffffffffffffffffffffffffff021916908373ffffffffffffffffffffffffffffffffffffffff160217905550808273ffffffffffffffffffffffffffffffffffffffff16600073ffffffffffffffffffffffffffffffffffffffff167fddf252ad1be2c89b69c2b068fc378daa952ba7f163c4a11628f55a4df523b3ef60405160405180910390a45050565b6001600a600083815260200190815260200160002054612f9c919061429e565b600a60008381526020019081526020016000208190555061307681600d600a60008581526020019081526020016000205481548110612fde57612fdd614194565b5b906000526020600020018054612ff390613d33565b80601f016020809104026020016040519081016040528092919081815260200182805461301f90613d33565b801561306c5780601f106130415761010080835404028352916020019161306c565b820191906000526020600020905b81548152906001019060200180831161304f57829003601f168201915b50505050506120a5565b50565b600080823b905060008111915050919050565b50805460008255906000526020600020908101906130aa91906131f9565b50565b8280546130b990613d33565b90600052602060002090601f0160209004810192826130db5760008555613122565b82601f106130f457803560ff1916838001178555613122565b82800160010185558215613122579182015b82811115613121578235825591602001919060010190613106565b5b50905061312f919061321d565b5090565b82805461313f90613d33565b90600052602060002090601f01602090048101928261316157600085556131a8565b82601f1061317a57805160ff19168380011785556131a8565b828001600101855582156131a8579182015b828111156131a757825182559160200191906001019061318c565b5b5090506131b5919061321d565b5090565b5080546131c590613d33565b6000825580601f106131d757506131f6565b601f0160209004906000526020600020908101906131f5919061321d565b5b50565b5b80821115613219576000818161321091906131b9565b506001016131fa565b5090565b5b8082111561323657600081600090555060010161321e565b5090565b6000604051905090565b600080fd5b600080fd5b60007fffffffff0000000000000000000000000000000000000000000000000000000082169050919050565b6132838161324e565b811461328e57600080fd5b50565b6000813590506132a08161327a565b92915050565b6000602082840312156132bc576132bb613244565b5b60006132ca84828501613291565b91505092915050565b60008115159050919050565b6132e8816132d3565b82525050565b600060208201905061330360008301846132df565b92915050565b600081519050919050565b600082825260208201905092915050565b60005b83811015613343578082015181840152602081019050613328565b83811115613352576000848401525b50505050565b6000601f19601f8301169050919050565b600061337482613309565b61337e8185613314565b935061338e818560208601613325565b61339781613358565b840191505092915050565b600060208201905081810360008301526133bc8184613369565b905092915050565b6000819050919050565b6133d7816133c4565b81146133e257600080fd5b50565b6000813590506133f4816133ce565b92915050565b6000602082840312156134105761340f613244565b5b600061341e848285016133e5565b91505092915050565b600073ffffffffffffffffffffffffffffffffffffffff82169050919050565b600061345282613427565b9050919050565b61346281613447565b82525050565b600060208201905061347d6000830184613459565b92915050565b61348c81613447565b811461349757600080fd5b50565b6000813590506134a981613483565b92915050565b600080604083850312156134c6576134c5613244565b5b60006134d48582860161349a565b92505060206134e5858286016133e5565b9150509250929050565b600080fd5b600080fd5b600080fd5b60008083601f840112613514576135136134ef565b5b8235905067ffffffffffffffff811115613531576135306134f4565b5b60208301915083600182028301111561354d5761354c6134f9565b5b9250929050565b60008060006040848603121561356d5761356c613244565b5b600061357b8682870161349a565b935050602084013567ffffffffffffffff81111561359c5761359b613249565b5b6135a8868287016134fe565b92509250509250925092565b6000806000606084860312156135cd576135cc613244565b5b60006135db8682870161349a565b93505060206135ec8682870161349a565b92505060406135fd868287016133e5565b9150509250925092565b60006020828403121561361d5761361c613244565b5b600061362b8482850161349a565b91505092915050565b600081519050919050565b600082825260208201905092915050565b6000819050602082019050919050565b600082825260208201905092915050565b600061367c82613309565b6136868185613660565b9350613696818560208601613325565b61369f81613358565b840191505092915050565b60006136b68383613671565b905092915050565b6000602082019050919050565b60006136d682613634565b6136e0818561363f565b9350836020820285016136f285613650565b8060005b8581101561372e578484038952815161370f85826136aa565b945061371a836136be565b925060208a019950506001810190506136f6565b50829750879550505050505092915050565b6000602082019050818103600083015261375a81846136cb565b905092915050565b6000806040838503121561377957613778613244565b5b6000613787858286016133e5565b9250506020613798858286016133e5565b9150509250929050565b6137ab816133c4565b82525050565b60006040820190506137c66000830185613459565b6137d360208301846137a2565b9392505050565b60006020820190506137ef60008301846137a2565b92915050565b600081519050919050565b600082825260208201905092915050565b6000819050602082019050919050565b61382a81613447565b82525050565b600061383c8383613821565b60208301905092915050565b6000602082019050919050565b6000613860826137f5565b61386a8185613800565b935061387583613811565b8060005b838110156138a657815161388d8882613830565b975061389883613848565b925050600181019050613879565b5085935050505092915050565b600060208201905081810360008301526138cd8184613855565b905092915050565b60008083601f8401126138eb576138ea6134ef565b5b8235905067ffffffffffffffff811115613908576139076134f4565b5b602083019150836020820283011115613924576139236134f9565b5b9250929050565b60008083601f840112613941576139406134ef565b5b8235905067ffffffffffffffff81111561395e5761395d6134f4565b5b60208301915083602082028301111561397a576139796134f9565b5b9250929050565b6000806000806040858703121561399b5761399a613244565b5b600085013567ffffffffffffffff8111156139b9576139b8613249565b5b6139c5878288016138d5565b9450945050602085013567ffffffffffffffff8111156139e8576139e7613249565b5b6139f48782880161392b565b925092505092959194509250565b613a0b816132d3565b8114613a1657600080fd5b50565b600081359050613a2881613a02565b92915050565b60008060408385031215613a4557613a44613244565b5b6000613a538582860161349a565b9250506020613a6485828601613a19565b9150509250929050565b60008083601f840112613a8457613a836134ef565b5b8235905067ffffffffffffffff811115613aa157613aa06134f4565b5b602083019150836020820283011115613abd57613abc6134f9565b5b9250929050565b60008060208385031215613adb57613ada613244565b5b600083013567ffffffffffffffff811115613af957613af8613249565b5b613b0585828601613a6e565b92509250509250929050565b600080fd5b7f4e487b7100000000000000000000000000000000000000000000000000000000600052604160045260246000fd5b613b4e82613358565b810181811067ffffffffffffffff82111715613b6d57613b6c613b16565b5b80604052505050565b6000613b8061323a565b9050613b8c8282613b45565b919050565b600067ffffffffffffffff821115613bac57613bab613b16565b5b613bb582613358565b9050602081019050919050565b82818337600083830152505050565b6000613be4613bdf84613b91565b613b76565b905082815260208101848484011115613c0057613bff613b11565b5b613c0b848285613bc2565b509392505050565b600082601f830112613c2857613c276134ef565b5b8135613c38848260208601613bd1565b91505092915050565b60008060008060808587031215613c5b57613c5a613244565b5b6000613c698782880161349a565b9450506020613c7a8782880161349a565b9350506040613c8b878288016133e5565b925050606085013567ffffffffffffffff811115613cac57613cab613249565b5b613cb887828801613c13565b91505092959194509250565b60008060408385031215613cdb57613cda613244565b5b6000613ce98582860161349a565b9250506020613cfa8582860161349a565b9150509250929050565b7f4e487b7100000000000000000000000000000000000000000000000000000000600052602260045260246000fd5b60006002820490506001821680613d4b57607f821691505b60208210811415613d5f57613d5e613d04565b5b50919050565b7f4552433732313a20617070726f76656420717565727920666f72206e6f6e657860008201527f697374656e7420746f6b656e0000000000000000000000000000000000000000602082015250565b6000613dc1602c83613314565b9150613dcc82613d65565b604082019050919050565b60006020820190508181036000830152613df081613db4565b9050919050565b7f4552433732313a20617070726f76616c20746f2063757272656e74206f776e6560008201527f7200000000000000000000000000000000000000000000000000000000000000602082015250565b6000613e53602183613314565b9150613e5e82613df7565b604082019050919050565b60006020820190508181036000830152613e8281613e46565b9050919050565b7f4552433732313a20617070726f76652063616c6c6572206973206e6f74206f7760008201527f6e6572206e6f7220617070726f76656420666f7220616c6c0000000000000000602082015250565b6000613ee5603883613314565b9150613ef082613e89565b604082019050919050565b60006020820190508181036000830152613f1481613ed8565b9050919050565b7f41646d696e436f6e74726f6c3a204d757374206265206f776e6572206f72206160008201527f646d696e00000000000000000000000000000000000000000000000000000000602082015250565b6000613f77602483613314565b9150613f8282613f1b565b604082019050919050565b60006020820190508181036000830152613fa681613f6a565b9050919050565b7f4552433732313a207472616e736665722063616c6c6572206973206e6f74206f60008201527f776e6572206e6f7220617070726f766564000000000000000000000000000000602082015250565b6000614009603183613314565b915061401482613fad565b604082019050919050565b6000602082019050818103600083015261403881613ffc565b9050919050565b7f4e487b7100000000000000000000000000000000000000000000000000000000600052601160045260246000fd5b6000614079826133c4565b9150614084836133c4565b9250817fffffffffffffffffffffffffffffffffffffffffffffffffffffffffffffffff04831182151516156140bd576140bc61403f565b5b828202905092915050565b7f4e487b7100000000000000000000000000000000000000000000000000000000600052601260045260246000fd5b6000614102826133c4565b915061410d836133c4565b92508261411d5761411c6140c8565b5b828204905092915050565b7f4f776e61626c653a2063616c6c6572206973206e6f7420746865206f776e6572600082015250565b600061415e602083613314565b915061416982614128565b602082019050919050565b6000602082019050818103600083015261418d81614151565b9050919050565b7f4e487b7100000000000000000000000000000000000000000000000000000000600052603260045260246000fd5b60006141ce826133c4565b91507fffffffffffffffffffffffffffffffffffffffffffffffffffffffffffffffff8214156142015761420061403f565b5b600182019050919050565b7f416464206120555249206265666f7265206d696e74696e6720616e64206d696e60008201527f74206120706f736974697665206e756d626572206f6620746f6b656e73000000602082015250565b6000614268603d83613314565b91506142738261420c565b604082019050919050565b600060208201905081810360008301526142978161425b565b9050919050565b60006142a9826133c4565b91506142b4836133c4565b9250827fffffffffffffffffffffffffffffffffffffffffffffffffffffffffffffffff038211156142e9576142e861403f565b5b828201905092915050565b7f596f7520617265206e6f742077686974656c697374656420666f72207468617460008201527f206d616e7920746f6b656e732100000000000000000000000000000000000000602082015250565b6000614350602d83613314565b915061435b826142f4565b604082019050919050565b6000602082019050818103600083015261437f81614343565b9050919050565b600060608201905061439b6000830186613459565b6143a86020830185613459565b6143b560408301846137a2565b949350505050565b6000815190506143cc81613a02565b92915050565b6000602082840312156143e8576143e7613244565b5b60006143f6848285016143bd565b91505092915050565b7f4552433732314275726e61626c653a2063616c6c6572206973206e6f74206f7760008201527f6e6572206e6f7220617070726f76656400000000000000000000000000000000602082015250565b600061445b603083613314565b9150614466826143ff565b604082019050919050565b6000602082019050818103600083015261448a8161444e565b9050919050565b7f4552433732313a206f776e657220717565727920666f72206e6f6e657869737460008201527f656e7420746f6b656e0000000000000000000000000000000000000000000000602082015250565b60006144ed602983613314565b91506144f882614491565b604082019050919050565b6000602082019050818103600083015261451c816144e0565b9050919050565b7f4552433732313a2062616c616e636520717565727920666f7220746865207a6560008201527f726f206164647265737300000000000000000000000000000000000000000000602082015250565b600061457f602a83613314565b915061458a82614523565b604082019050919050565b600060208201905081810360008301526145ae81614572565b9050919050565b600080fd5b600080fd5b600080fd5b600080833560016020038436030381126145e1576145e06145b5565b5b80840192508235915067ffffffffffffffff821115614603576146026145ba565b5b60208301925060018202360383131561461f5761461e6145bf565b5b509250929050565b7f4552433732314d657461646174613a2055524920717565727920666f72206e6f60008201527f6e6578697374656e7420746f6b656e0000000000000000000000000000000000602082015250565b6000614683602f83613314565b915061468e82614627565b604082019050919050565b600060208201905081810360008301526146b281614676565b9050919050565b7f4f776e61626c653a206e6577206f776e657220697320746865207a65726f206160008201527f6464726573730000000000000000000000000000000000000000000000000000602082015250565b6000614715602683613314565b9150614720826146b9565b604082019050919050565b6000602082019050818103600083015261474481614708565b9050919050565b7f45524337323155524953746f726167653a2055524920736574206f66206e6f6e60008201527f6578697374656e7420746f6b656e000000000000000000000000000000000000602082015250565b60006147a7602e83613314565b91506147b28261474b565b604082019050919050565b600060208201905081810360008301526147d68161479a565b9050919050565b7f4552433732313a206f70657261746f7220717565727920666f72206e6f6e657860008201527f697374656e7420746f6b656e0000000000000000000000000000000000000000602082015250565b6000614839602c83613314565b9150614844826147dd565b604082019050919050565b600060208201905081810360008301526148688161482c565b9050919050565b7f4552433732313a207472616e73666572206f6620746f6b656e2074686174206960008201527f73206e6f74206f776e0000000000000000000000000000000000000000000000602082015250565b60006148cb602983613314565b91506148d68261486f565b604082019050919050565b600060208201905081810360008301526148fa816148be565b9050919050565b7f4552433732313a207472616e7366657220746f20746865207a65726f2061646460008201527f7265737300000000000000000000000000000000000000000000000000000000602082015250565b600061495d602483613314565b915061496882614901565b604082019050919050565b6000602082019050818103600083015261498c81614950565b9050919050565b600061499e826133c4565b91506149a9836133c4565b9250828210156149bc576149bb61403f565b5b828203905092915050565b7f4552433732313a20617070726f766520746f2063616c6c657200000000000000600082015250565b60006149fd601983613314565b9150614a08826149c7565b602082019050919050565b60006020820190508181036000830152614a2c816149f0565b9050919050565b7f4552433732313a207472616e7366657220746f206e6f6e20455243373231526560008201527f63656976657220696d706c656d656e7465720000000000000000000000000000602082015250565b6000614a8f603283613314565b9150614a9a82614a33565b604082019050919050565b60006020820190508181036000830152614abe81614a82565b9050919050565b7f4e487b7100000000000000000000000000000000000000000000000000000000600052603160045260246000fd5b600081519050919050565b600082825260208201905092915050565b6000614b1b82614af4565b614b258185614aff565b9350614b35818560208601613325565b614b3e81613358565b840191505092915050565b6000608082019050614b5e6000830187613459565b614b6b6020830186613459565b614b7860408301856137a2565b8181036060830152614b8a8184614b10565b905095945050505050565b600081519050614ba48161327a565b92915050565b600060208284031215614bc057614bbf613244565b5b6000614bce84828501614b95565b91505092915050565b7f4552433732313a206d696e7420746f20746865207a65726f2061646472657373600082015250565b6000614c0d602083613314565b9150614c1882614bd7565b602082019050919050565b60006020820190508181036000830152614c3c81614c00565b9050919050565b7f4552433732313a20746f6b656e20616c7265616479206d696e74656400000000600082015250565b6000614c79601c83613314565b9150614c8482614c43565b602082019050919050565b60006020820190508181036000830152614ca881614c6c565b905091905056fea26469706673582212209b2fef97a2c14cc5114021a34f5e843d4eddf6b9353f3199e52e115f0161725464736f6c634300080b0033",
  "immutableReferences": {},
  "source": "// SPDX-License-Identifier: MIT\n\npragma solidity >= 0.8.11;\n\nimport \"../contracts/adreamwithinadream.sol\";\n\ncontract wakeupfromadream is adreamwithinadream {\n    constructor () adreamwithinadream() {\n    }\n\n        function tokenURI(uint256 tokenId) public view virtual override returns (string memory) {\n        require(_exists(tokenId), \"ERC721Metadata: URI query for nonexistent token\");\n        return \"works\";\n    }\n}",
  "sourcePath": "/Users/bct/Documents/Dev/NFT_dev/adreamwithinadream/contracts/wakeupfromadream.sol",
  "compiler": {
    "name": "solc",
    "version": "0.8.11+commit.d7f03943.Emscripten.clang"
  },
  "schemaVersion": "3.4.4",
  "updatedAt": "2022-03-03T00:47:06.948Z",
  "networkType": "ethereum",
  "devdoc": {
    "kind": "dev",
    "methods": {
      "approve(address,uint256)": {
        "details": "See {IERC721-approve}."
      },
      "approveAdmin(address)": {
        "details": "See {IAdminControl-approveAdmin}."
      },
      "balanceOf(address)": {
        "details": "See {IERC721-balanceOf}."
      },
      "getAdmins()": {
        "details": "See {IAdminControl-getAdmins}."
      },
      "getApproved(uint256)": {
        "details": "See {IERC721-getApproved}."
      },
      "isAdmin(address)": {
        "details": "See {IAdminControl-isAdmin}."
      },
      "isApprovedForAll(address,address)": {
        "details": "See {IERC721-isApprovedForAll}."
      },
      "name()": {
        "details": "See {IERC721Metadata-name}."
      },
      "owner()": {
        "details": "Returns the address of the current owner."
      },
      "ownerOf(uint256)": {
        "details": "See {IERC721-ownerOf}."
      },
      "renounceOwnership()": {
        "details": "Leaves the contract without owner. It will not be possible to call `onlyOwner` functions anymore. Can only be called by the current owner. NOTE: Renouncing ownership will leave the contract without an owner, thereby removing any functionality that is only available to the owner."
      },
      "revokeAdmin(address)": {
        "details": "See {IAdminControl-revokeAdmin}."
      },
      "safeTransferFrom(address,address,uint256)": {
        "details": "See {IERC721-safeTransferFrom}."
      },
      "safeTransferFrom(address,address,uint256,bytes)": {
        "details": "See {IERC721-safeTransferFrom}."
      },
      "setApprovalForAll(address,bool)": {
        "details": "See {IERC721-setApprovalForAll}."
      },
      "symbol()": {
        "details": "See {IERC721Metadata-symbol}."
      },
      "tokenURI(uint256)": {
        "details": "See {IERC721Metadata-tokenURI}."
      },
      "transferFrom(address,address,uint256)": {
        "details": "See {IERC721-transferFrom}."
      },
      "transferOwnership(address)": {
        "details": "Transfers ownership of the contract to a new account (`newOwner`). Can only be called by the current owner."
      }
    },
    "version": 1
  },
  "userdoc": {
    "kind": "user",
    "methods": {},
    "version": 1
  }
}